:020000040800F2
:10000000180B0020450200084D0200084F020008AE
:1000100051020008530200085502000800000000C9
:10002000000000000000000000000000570200086F
:1000300059020008000000005B020008E9250008E2
:100040005F0200085F0200085F0200085F0200080C
:100050005F0200085F0200081D1E0008E11E000884
:10006000051F0008291F00084D1F00085F02000837
:100070005F0200085F0200085F0200085F020008DC
:100080005F0200085F0200085F0200085F020008CC
:100090005F0200085F0200085F020008711F00088D
:1000A0005F020008AD2600085F0200085F0200083A
:1000B000DD26000809270008392700085F0200082C
:1000C0005F0200085F0200085F0200085F0200088C
:1000D0005F020008E12C0008ED2C0008F92C000854
:1000E000411E00085F0200085F02000800F002F8ED
:1000F00000F099F80AA090E8000C82448344AAF129
:100100000107DA4501D100F08EF8AFF2090EBAE826
:100110000F0013F0010F18BFFB1A43F0010318473B
:100120000C6000002C600000103A24BF78C878C131
:10013000FAD8520724BF30C830C144BF04680C60ED
:10014000704700000023002400250026103A28BF35
:1001500078C1FBD8520728BF30C148BF0B60704739
:100160006E2900F00784702900F06187662905F088
:100170001083652905F00D83672905F00A8361293D
:10018000AFF3008003681B0A28BF41F08001692992
:1001900000F06081642900F05D81752900F05A81CA
:1001A0006F2900F0EE86782900F02D87E92900F00C
:1001B0008986E42900F08686F52900F08386EF29F8
:1001C00000F0EB86F82900F02C870368DB0928BFD4
:1001D00041F08001632901F00F80732901F0148040
:1001E000E32901F01F80F32901F0248000207047EB
:1001F0001FB59DE8030000F0CBFA00F0A9FA040057
:100200000020002104F0C8FD401C60600020002197
:1002100004F0D8FDE06000F085FA1FBD10B50020A5
:1002200000F010FF10BD01F0E5F81146FFF7E0FF08
:1002300004F066FD01F008F903B4FFF7EFFF03BC1B
:1002400001F0D2F80948804709480047FEE7FEE779
:10025000FEE7FEE7FEE7FEE7FEE7FEE7FEE7FEE776
:1002600004480549054A064B704700005D26000812
:10027000ED00000818050020180B002018070020CA
:100280001807002010B500F063FA001D10BD00BF74
:10029000094B000070B50446051F00F055FA0068D0
:1002A000002C14BF446870BD002C18BFAC423CBF8A
:1002B00020466468F8D301680A18AA4218BF45604E
:1002C00003D12A6805461144016028684119A142FA
:1002D0001CBF6C6070BD616869602168084428605B
:1002E00070BD53EA020C00F069802DE9F04B4FF02D
:1002F0000006002B1FBFB3FA83F503FA05F424FAB6
:1003000005F65E4012BF1643B2FA82F502FA05F412
:10031000C5F120051EBF22FA05FC44EA0C04203575
:1003200056EA044C4FEA144418BF641C4FF000080E
:100330004FF00009904271EB030C39D3002919BF2B
:10034000B1FA81F701FA07F6B0FA80F700FA07F67A
:10035000C7F120071EBF20FA07FC46EA0C0620372B
:10036000B6FBF4FCA7EB0507103F07F01F0BCBF122
:1003700020060CFA0BFB2CFA06F644BFB346002607
:10038000202FA4BF5E464FF0000B5BEA060C08BFAF
:100390004FF0010B19EB0B09ABFB027C48EB060895
:1003A000C01B06FB02CC0BFB03CC71EB0C01C1E7BD
:1003B0000B46024641464846BDE8F08B13B54FF068
:1003C00000004FF00001AFF30080BDE81C40704713
:1003D0007CB51D4616460C00009001D02044401EFE
:1003E000074B7B442A4669460190304600F0EBFCFF
:1003F00005461CB10020694600F0F8FC28467CBD8B
:10040000110A000070B5044685690068C10601D56F
:10041000302600E02026C00707D070BDD4E90121B6
:1004200030469047206A401C20626D1EF6D570BD94
:1004300070B5044685690078C00707D170BDD4E95E
:10044000012120209047206A401C20626D1EF6D5B5
:1004500070BD00002DE9F0410646002410687529A2
:10046000314616A510D000F0F1F9002802DA40421A
:1004700013A507E031688A0701D512A502E04907F4
:1004800004D511A5012401E000F0E9F900210A22B8
:1004900006F1240709E0B0FBF2FCB0FBF2F302FB2B
:1004A0001C00303078541846491C0028F3D12346EC
:1004B0002A463046BDE8F04100F003BA00000000D3
:1004C0002D0000002B000000200000002DE9F05F4F
:1004D000894604464FF0000ADFF874B1FB44C0F8C7
:1004E00020A02046E1688847002874D0252806D03F
:1004F000D4E901219047206A401C2062F1E70026E0
:100500005F462046E16888472028054607DB312DF5
:1005100005D2781910F8200C08B10643F1E7B007AE
:1005200001D526F00406C4F81CA00027C4F818A0C2
:100530002A2D09D0284604F08BFB38B304EB87083A
:10054000303DC8F8185019E059F8041B204604EB58
:1005500087029161E1688847012F054618D1E0695B
:10056000002820DA26F020061DE0D8F8180000EB5D
:10057000800005EB40003038C8F818002046E168DC
:100580008847054604F064FB0028EED1012F0AD00D
:100590002E2D08D12046E16888477F1C0546022F92
:1005A00046F02006C4DBA069002803DA404246F08A
:1005B0000106A061F00701D026F010066C2D0BD0CB
:1005C000682D09D04C2D39D06A2D35D0742D35D0F9
:1005D0007A2D33D016E038E0E1682F462046884770
:1005E000B842054609D16C2F26D04FF48060E168EF
:1005F000064320468847054604E06C2F1AD04FF486
:10060000807006430DB3A5F14100192802D82035AA
:1006100046F400664A462946204626604E46FFF7C5
:100620009FFD80B101280BD0F61D26F0070000F1D8
:10063000080956E74020E4E78020D8E70020D6E705
:1006400006F104094DE7284652E7206ABDE8F09F0D
:10065000405B00002DE9F041074615460E4610208C
:1006600000F0C5F804000AD06760C4E9026500F034
:1006700073F80168216004600020BDE8F08101206A
:10068000FBE7421E12F8013F002BFBD111F8013BA2
:10069000002B02F8013BF9D1704700004FF0013CFC
:1006A00050F8042B51F8043B9A4221D1A2EB0C03E1
:1006B000934313EACC1317D150F8042B51F8043BA1
:1006C0009A4215D1A2EB0C03934313EACC130BD13E
:1006D00050F8042B51F8043B9A4209D1A2EB0C03C9
:1006E000934313EACC13DBD04FF00000704700BFF8
:1006F000D01A01BAB1FA81F101F0180122FA01F021
:10070000CB40C1F12001DBB2C0B2C01A2CFA01F318
:10071000D11A914311EAC311E6D17047704770476F
:100720007047000070B5064C7C44064D7D4403E0E4
:10073000206820448047241DAC42F9D170BD0000E0
:100740004C5B00005C5B000000487047BC0400206C
:1007500000487047D404002000487047EC04002093
:10076000704770477047704738B504460A46002006
:100770006946AFF30080002808BF38BD02460099E3
:10078000204600F090FC012038BD012000F0EDBDB6
:10079000F8B5AFF30080054600200C46102000BFDE
:1007A0000646A819A0420DD9324669460020AFF38B
:1007B0000080070008BF00F0D8FD0098A04218BFD5
:1007C0000546C419FFF7C0FF05600746F01D20F07D
:1007D00007004619284600F05FFCB44208BFF8BD88
:1007E000A21B31463868BDE8F84000F05CBC70B52B
:1007F0000646FFF7A9FF056806F10B0020F0070485
:10080000B4429CBF002070BD2B466A68BAB1106824
:10081000A04210D304F1080188423CBF50685860E0
:1008200007D35168101941601168091B01605860B5
:100830001460101D70BD13465268002AE7D121468E
:100840002846FFF791FF0028DED170BD09684A05F0
:1008500001D540B27047C905FCD500B270470968A0
:100860004A0501D5C0B27047C905FCD580B27047B2
:1008700070B50C460546012A05D02878800600D5BB
:10088000EA69002302E0012305E05B1C934202D2E7
:10089000E05C0028F9D1A869E618C01AA861286AA6
:1008A000184428622846FFF7ADFD04E0D5E9012190
:1008B00014F8010B9047B442F8D32846FFF7B8FD6F
:1008C00070BD2DE9F0470D4699469246044600F169
:1008D00024080168880604D5E06921F01001216030
:1008E00000E00120A84201DD471B00E00027A169CC
:1008F0007A1902EB0900081AA0612078C00602D418
:100900002046FFF77FFD002608E0D4E901211AF810
:1009100006009047206A401C761C20624E45F4DB9E
:100920002078C0060AD52046FFF76CFD06E0D4E922
:10093000012130209047206A401C2062381EA7F118
:100940000107F4DC07E0D4E9012118F8050090471D
:10095000206A401C2062281EA5F10105F3DC204618
:10096000FFF766FD2078000602D50220BDE8F0877B
:100970000120FBE711680268006A530501D5087081
:100980000AE0D30501D5088006E0130603D5C21797
:10099000C1E9000200E008600120704770472DE9BE
:1009A000FF4F0C461E464FF0FF378BB0D2E90001D7
:1009B000DDF860800A908A46C1F30A5505B93D46C4
:1009C000002108464FF00000BAF1000F00F440008B
:1009D00005DA00EB80004FF4400101EA50004FEAD5
:1009E0009059B9F1010F00DDB9460A9850EA4A0062
:1009F0000ED044F61050A5F2FF3545432F14B8F140
:100A0000000F1ED07542291E1EDDC9F100021CE038
:100A1000B8F1010F4FF0000001D0302103E0F243A4
:100A200005E02154401CB042FBDB3046002200218F
:100A300021540B99C1F80880C1E900200FB0BDE82E
:100A4000F08FBD1B6D1CDEE74A4600DA694206A83E
:100A500000F0F4FB06AB93E8070003AB83E8070064
:100A600050460A9900F08CFD8DE80700A0F5005073
:100A70001F3800900398002D0ADD42F21F014A46FC
:100A80000844002303A90390684600F0F5FF09E03D
:100A9000A0F500504A461F38002303A9039068467A
:100AA00000F0FFFF8DE807000004000C03D04FF0BA
:100AB000FF30410800E01046B8F1000F03D00022DB
:100AC000009215461EE0751E05D400F006FB30327C
:100AD00062556D1EF9D5B3460122084302D00022AB
:100AE0007F1C04E02078302801D100227F1E002ADC
:100AF000099784D01DE0112D07DA00F0EEFA3032AC
:100B000062556D1C50EA0102F5D1084302D00098ED
:100B1000C8B10EE00021681E05E0235C625C6354EE
:100B20002254401E491C8142F7DBAB46A81B401EE5
:100B30000990002004F80B000B98099AC0F808806F
:100B4000C0E9002B7AE711264FF0000857E72DE99E
:100B5000F04F88460446D21D22F0070191B0D1E93A
:100B60000001CDE90A0103F0EBFF02460B98C00F2C
:100B700001D02D2007E02068810701D52B2002E05D
:100B8000202101EAC000032A099001D0072A05DBD1
:100B900003464146204600F0E5FA0BE12078800646
:100BA00001D5E06900E00620B8F1650F814606D066
:100BB000B8F1660F18D0B8F1670F70D131E000209E
:100BC000B9F1110F009001DB112301E009F10103DC
:100BD0000AAA01A90CA8FFF7E2FEDDE90C700026C5
:100BE00009F10105834647E001204B4600904FF094
:100BF00000470AAA01A90CA8FFF7D1FEDDE90DB054
:100C00000C995D46002610B909F101000D18B9EBE9
:100C1000050003D4C0F1FF3609F10105A5EB090079
:100C20002BE0B9F1010F01DA4FF001090020B9F111
:100C3000110F0090484601DD112300E003460AAA87
:100C400001A90CA8FFF7ABFEDDE90C704D460026AC
:100C50008346207800070AD4AB4500DA5D4601A838
:100C6000012D04DD411911F8011C302907D04F4531
:100C700002DA17F1040F04DA012082460FE06D1E3C
:100C8000EEE7002F02DCED1B3E4403E0781CA84297
:100C900000DD7D1CB81B00F1010A4FF000472078F1
:100CA000000703D4AA4501DB4FF0FF3A0021B7F15A
:100CB000004F0DF143088DF8431024D002202B2360
:100CC000002F01DA7F422D230A21021EA0F101002C
:100CD00000DC5FB197FBF1FC97FBF1F201FB1C7CA0
:100CE00017460CF1300C08F801CDEEE7A8F1010031
:100CF00003702188090501D5452100E06521A0F197
:100D0000010800F8011C09980FA9A1EB0807FF1DB5
:100D100000B10120411901EBEA70A1693844081AB9
:100D2000401EA0612078C00602D42046FFF76AFB6F
:100D3000099828B1D4E901219047206A401C20621B
:100D40002078C00622D52046FFF75CFB1EE0002E6F
:100D500004DBB34502DD01A8805D00E03020D4E96A
:100D600001219047206A401C2062761CAAF10100F4
:100D70005FEA000A0AD1FFF7EBFCC0680168405C3B
:100D8000D4E901219047206A401C2062281EA5F169
:100D90000105DCDC07E0D4E9012118F8010B9047DC
:100DA000206A401C2062381EA7F10107F3DC2046B0
:100DB000FFF73EFB032011B041E6000001694A1C29
:100DC00002610878704700B58FB0CDE9013100218C
:100DD000059105497944CDE9031011466846FFF7AE
:100DE00075FB0FB000BD0000E5FFFFFF0A6802F8C9
:100DF000010B0A607047D1E900239A4202D2531CCA
:100E00000B601070704700002DE9FF5F15468A46A1
:100E10000446DFF8AC80F8440027D8E900103E46CD
:100E2000CDE9001010E03AF816106A4602A800F06A
:100E300077FA411C07D02178890603D5E269391871
:100E400091420DD80744761C2078800602D5E069CF
:100E5000B84205DDAE42E6DB3AF816000028E2D1E2
:100E6000A069C01BA0612046FFF7CCFAD8E90010AA
:100E7000CDE90010002017E03AF818106A4602A8E1
:100E800000F04EFAB0F1FF3F81460BD000250DF186
:100E9000080B05E0D4E901211BF8050090476D1C03
:100EA0004D45F7D308F10100B0428046E4DB206AEB
:100EB000384420622046FFF7BBFABDE8FF9F0000E0
:100EC0001A5200002DE9F0418046D21D22F007029F
:100ED0000025D2E90002F52915A614D0011E72F1F1
:100EE000000106DA0023D0EB030063EB020211A637
:100EF00008E0D8F800108B0701D50FA602E04907DB
:100F000001D50EA601251146002408F1240704E0AE
:100F100000F0E3F830323A55641C50EA0102F7D190
:100F20002B46324621464046BDE8F041FFF7C9BC9A
:100F3000000000002D0000002B0000002000000039
:100F400030B4002100F1240408E002F00705D208C3
:100F5000303542EA4372DB086554491C52EA030506
:100F6000F3D10468002310A2250707D5A40600D4F6
:100F700021B1C46901230DA2641EC46130BCFFF716
:100F8000A0BC10B5044621461068FFF768FC024675
:100F90002046BDE810400023D2E7D21D22F0070111
:100FA000D1E90023CCE70000000000003000000081
:100FB000F0B40D460188090502D5214C7C4402E0BD
:100FC0001F4C7C440E34002100F1240608E002F09E
:100FD0000F071209E75D42EA03721B097754491CA7
:100FE00052EA0307F3D102780023120704D5702DCB
:100FF00006D009B1022311342246F0BCFFF761BCD0
:1010000001231034F8E770B504460D4621461068F8
:10101000FFF725FC024629462046BDE87040002324
:10102000C6E7D21D22F00703D3E90023C0E7036817
:10103000126843F0200303600823C3610023B7E76D
:101040007C5000002DE9F0410646FFF785FB804605
:10105000454613E016B1E068B0420ED12068286022
:10106000D4E90101D8F8007088472046FFF712F94B
:10107000D8F80000B842EBD100E025462C68002CDF
:10108000E8D1BDE8F081000000487047B4040020BA
:1010900000487047E804002000210160C0E9011009
:1010A000704710207047034640688C46002818BFE0
:1010B00088423CBF03464068F8D318681844884209
:1010C00007D00CF1030020F00700001D411A521A4E
:1010D0000146081D0A60FFF7DDB830B5B0F10A021D
:1010E0004FEA900E71F100034EEA817EB0EB0E00E4
:1010F00061EB91014FEA101E4EEA017E10EB0E00EB
:1011000041EB11114FEA102E4EEA016E10EB0E006A
:1011100041EB11214FEA104E4EEA014E10EB0E004A
:1011200041EB1141401841F100014FEAD00040EA83
:1011300041704FEAD10110EB80054FEA810444EA87
:10114000907444EB01046D1944EB0404521BA34159
:101150004FF0000348BF0A3200D530BD401C41F1BA
:10116000000130BD2DE9F0411F4604460326016809
:10117000072A01F4006004DB08B116A505E016A5F6
:1011800003E008B115A500E015A521F010002060CE
:10119000A069C01EA0610FB1401EA0612046FFF7EC
:1011A00031F94FB1D4E9012138469047206A401CFB
:1011B0002062C01C206206E0206AFAE7D4E901211F
:1011C00015F8010B9047761EF8D22046FFF730F94C
:1011D000BDE8F0814E414E006E616E00494E460002
:1011E000696E660010B5436913B1AFF3008001E08A
:1011F000FFF73EFB012010BD127800F124010A70B8
:1012000000224A700122EDE711684FF0FF32E9E752
:1012100010B5436913B1AFF3008001E0FFF7F4FDAF
:10122000012010BD128800F1240182840022C284B2
:101230000122EDE711684FF0FF32E9E72DE9F047B1
:10124000814616468AB0354878440DC88DE80D00B1
:1012500032487844801C03AC0DC884E80D0041F688
:101260009B300844372190FBF1F290FBF1F5A5F19A
:10127000800501FB12041B3C02D56442012000E002
:101280000020DFF898A080460027FA44AAF1BE0AA1
:101290000EE0E0070AD03246684607EB470101231B
:1012A0000AEB810100F0FDFB8DE8070064107F1C54
:1012B000002CEED1194F7F44AE3F19E0E80715D05E
:1012C00007EB04100DF1180A90E80E008AE80E00F2
:1012D000C068F04201D1981908903246012306A94E
:1012E00003A800F0DEFB03AB83E807006D10641C6D
:1012F000002DE3D14FF0010332466946B8F1000FEB
:1013000003A802D000F0B8FB01E000F0CAFBC9E975
:101310000001C9F808200AB0BDE8F087944E00002B
:1013200070B516460C460546FEF7ACFF036893F809
:101330000101012806D0FF2C0FD8185D68B10120EB
:101340002C7070BDD3F807013246214603F2071313
:1013500003442846BDE8704018474FF0FF3070BD89
:10136000002801D000F040B8704710B500F09AF89E
:10137000BDE81040FFF7F4BFAFF3008010B500F0F8
:101380000EF8016919B100220261884701E0806806
:10139000804700F062F8000010B500F05EF870B50C
:1013A00000F04EF804680546A4B92020FFF71FFAA4
:1013B000040011D0094900202C60C4E9000108494B
:1013C000A1602073206160610649A06109B100F04D
:1013D00091F8E061204670BD00F03FF80000000089
:1013E000991300080000000001491820ABBEFEE779
:1013F000260002007546FFF747FEAE460500694627
:10140000534620F00700854618B020B5FEF728FFA8
:10141000BDE820404FF000064FF000074FF00008F5
:101420004FF0000B21F00701AC46ACE8C009ACE876
:10143000C009ACE8C009ACE8C0098D46704700009F
:1014400000487047F004002010B50446AFF3008058
:101450002046BDE81040FEF7EFBE10B5002000F0BA
:101460006FF8FEF7DBFEBDE810400120FFF7BCBFC0
:1014700070B505460C460A2000E06D1C00F058F8D7
:1014800035B128780028F8D102E0641C00F050F84B
:1014900014B120780028F8D1BDE870400A2000F08F
:1014A00047B8000010B5012805D0002103A0FFF7C0
:1014B000DFFF012010BD09A1F8E7000053494752A2
:1014C000544D454D3A204F7574206F662068656114
:1014D00070206D656D6F7279000000003A204865DC
:1014E0006170206D656D6F727920636F72727570B7
:1014F0007465640010B58820FFF779F9002801D0E1
:101500000021017010BD802902D808B1017809B10D
:1015100000207047012100F8081B704718B100F146
:101520000802914201D000207047002101707047ED
:1015300008B569468DF800000320ABBE08BD7047B2
:1015400010B500F005F8BDE81040FFF709BF000036
:1015500010B5002102A0FFF78BFF012010BD000095
:10156000534947414252543A2041626E6F726D6155
:101570006C207465726D696E6174696F6E00000035
:101580005FEA400C08BF91F0000F4FEA8C234FEA4E
:10159000C12243EA51514FEA1C5018BF00F5F040F8
:1015A0004FEA300018BF41F000415FEA6C5C00F088
:1015B0002980BCF1FF3F08BF40F080407047130C0A
:1015C00006BF12044FF0100C4FF0000C130E04BFB6
:1015D00012020CF1080C130F04BF12010CF1040CE1
:1015E000930F04BF92000CF1020CD30F04BF520002
:1015F0000CF1010C11464FF00002A0F11F00A0EB0E
:101600000C00704711F0004F08BF704731F00041E7
:101610003FF4D5AF0B0C06BF09044FF0100C4FF090
:10162000000C0B0E04BF09020CF1080C0B0F04BFD9
:1016300009010CF1040C8B0F04BF89000CF1020CA2
:10164000CB0F04BF49000CF1010CCCF12003A0EB3F
:101650000C0022FA03F302FA0CF241EA030100F152
:101660000100704720F07F4C80EA030023F07F47A1
:10167000ACEB070303F57C5300F0004003F1FF03DC
:101680002DE980494FEA154B09B44FEA144325EA86
:101690000B4E24EA03480FF2042606EB13274908F1
:1016A0003E785FEA320203FB0667C7F5000707FBD7
:1016B00006F64FEA54374FEAD64606F1020607FB14
:1016C000066CCCF1005C4FEA1C472CEA074C07FB88
:1016D00006F40CFB06F504EB15464FEA961634BFEC
:1016E00000204FF000404FEAD13706FB07FC4FEADD
:1016F0001C4C0CFB0BF7D21B03FB0CF761EB070137
:101700000CFB0EF7B0EB074072EB17420CFB08F72F
:1017100034BFA2EB0742B2EB074261EB17414FEA3D
:101720000C444FEA910706FB07FC4FEA1C4C0CFBEC
:101730000BF7B0EBC74072EB573203FB0CF734BF2B
:10174000A2EBC742B2EBC74261EB57310CFB0EF77D
:10175000B0EBC70072EB57720CFB08F734BFA2EB7B
:10176000C702B2EBC70261EB5771039F4FEA816179
:1017700041EA921104EBCC044FEAD1374FEA82627E
:1017800006FB07FC42EA90124FEA80604FEA1C4CCD
:101790000CFB0BF7D21B03FB0CF761EB07010CFBF7
:1017A0000EF7B0EB074072EB17420CFB08F734BFA3
:1017B000A2EB0742B2EB074261EB17414FEA8C55AF
:1017C0004FEA910704EB9C2406FB07FC4FEA1C4CF4
:1017D0000CFB0BF7B0EBC74072EB573203FB0CF777
:1017E00034BFA2EBC742B2EBC74261EB57310CFBEF
:1017F0000EF7B0EBC70072EB57720CFB08F734BF63
:10180000A2EBC702B2EBC70261EB577115EB4C2597
:101810004FEA816141EA92114FEA82624FEAD13781
:1018200042EA901206FB07FC44F100044FEA806094
:101830004FEA1C4C0CFB0BF7D21B03FB0CF761EBC4
:1018400007010CFB0EF7B0EB074072EB17420CFBE5
:1018500008F734BFA2EB0742B2EB074261EB174136
:1018600015EB1C154FEA813141EA92414FEA823271
:1018700042EA90424FEA80304FEA0C7644F100048D
:1018800048EA03434EEA0B484FF0000EB2EB080C57
:1018900071EB030724BF624639464EEB0E0E4FF044
:1018A000000B0018524149414BEB0B0BB2EB080CFB
:1018B00071EB03077BF1000B24BF624639464EEB08
:1018C0000E0E4FF0000B0018524149414BEB0B0B31
:1018D000B2EB080C71EB03077BF1000B24BF6246EF
:1018E00039464EEB0E0E51EA020718BF46F00106CC
:1018F00016EB0E7655F1000254F1000103D5BDE858
:101900008901BDE80088BDE88901BDE80048B61935
:10191000524141EB0101A3F10103704780807F7EBA
:101920007D7C7B7A79787776767574737271717055
:101930006F6E6E6D6C6C6B6A6A6968686766666507
:101940006464636362616160605F5F5E5E5D5D5C95
:101950005C5B5B5A5A595958585757565655555506
:101960005454535352525251515050504F4F4F4E66
:101970004E4D4D4D4C4C4C4B4B4B4A4A4A494949B4
:1019800048484847474747464646454545444444F6
:10199000444343434342424242414141002B9C461F
:1019A00030D477002BD01CB54FEA370703B44FF083
:1019B00010004FF01001BAF1000F06D0BCF1000F7B
:1019C000DCBF40F0080040F008014FF000000FBC01
:1019D000BDE810400BF1010BBBF1010F08BF5FEA3E
:1019E000170722BF12F1010211F101014FF000416E
:1019F00043F1000300F0004043EA00007047F9D3D0
:101A00005708D0E746EA064613F1400F4FEA16465C
:101A10001FDD13F1200FDFBF16430A4600212033DC
:101A20005B42BED0C3F1200746EA064602FA07F73A
:101A30004FEA164646EA0706C3F1200722FA03F2E8
:101A400001FA07F721FA03F14FF0000342EA070217
:101A5000A7E746EA020646EA06464FEA164646EA7F
:101A60000106BCBF46EA0646360C4FF000034FF0B5
:101A700000024FF0000194E72DE9804C9A4693460E
:101A800070B491E8380007C831EA400C48BF34EA26
:101A9000430C03D5FFF7E6FDFFF780FFF0BCBDE880
:101AA000008C2DE9804C9A46934670B491E838003A
:101AB00007C810F0804F08BF13F0804F03D100F02B
:101AC00005F8FFF76BFFF0BCBDE8008C20F07F4706
:101AD00080EA030023F07F4C07EB0C03A3F57C5353
:101AE00000F00040A3F1FE0392F0000F00F0B3807D
:101AF00095F0000F00F077802DE901494FEA114081
:101B00004FEA144621EA004800FB06FC24EA064797
:101B100008FB06F607FB08F800FB07F718EB06487A
:101B20004CEB164C4FEA124B18EB07484FEA1546A0
:101B30004CEB174022EA0B4E0BFB06FC25EA06474E
:101B40000EFB06F607FB0EFE0BFB07F71EEB064E21
:101B50004CEB164C4FF000061EEB074E4CEB174BB0
:101B600018EB0B0840F1000018EB0E0B58EB0008C7
:101B700040F100008F1A4FF000013CBFC943661BC3
:101B800014BFB5EB040C00213CBFC943F61B4FEA60
:101B900017444EEA8E0E27EA04454FEA1C4704FB21
:101BA00007622CEA074C05FB07F70CFB05F604FB64
:101BB0000CFC16EB074642EB174216EB0C4642EBC9
:101BC0001C421BEB060658EB0202414146EA9E0608
:101BD00001D5BDE80189B619524141EB0101A3F1DC
:101BE0000103BDE801894FEA14454FEA114724EA91
:101BF000054621EA074C05FB07F406FB07F70CFB3B
:101C000006F105FB0CFC11EB074144EB17444FEACE
:101C1000124711EB0C4144EB1C4422EA074C05FB34
:101C200007F206FB07F70CFB06F605FB0CFC16EBB0
:101C3000074642EB174216EB0C4642EB1C456A186E
:101C400054F1000148BF7047B619524141EB010100
:101C5000A3F10103704795F0000F37D04FEA11420E
:101C60004FEA144721EA024624EA074C02FB07F137
:101C700006FB07F70CFB06F402FB0CFC14EB074415
:101C800041EB17414FEA154714EB0C4441EB1C4163
:101C900025EA074C02FB07F506FB07F70CFB06F6E7
:101CA00002FB0CFC16EB074645EB174516EB0C4602
:101CB00045EB1C42121951F1000148BF7047B6199B
:101CC000524141EB0101A3F1010370474FEA144572
:101CD0004FEA114724EA054621EA074C05FB07F1C4
:101CE00006FB07F70CFB06F24FF0000605FB0CFCA9
:101CF00012EB074241EB174112EB0C4251EB1C4136
:101D000048BF7047921841EB0101A3F101037047EE
:101D100070B5244D0446244E687840B90020FF2158
:101D20003154401CC0B21228FAD30120687024B389
:101D3000012C22D0022C20D0032C1ED0042C1CD02D
:101D4000052C1AD0062C18D0072C16D0082C14D02D
:101D5000092C12D00A2C10D00B2C0ED00C2C0CD02D
:101D60000D2C0AD00E2C08D00F2C06D0102C04D02D
:101D7000112C02D04FF0FF3070BD204600F016F855
:101D8000401C02D06FF0010070BD2878122802D3E9
:101D90006FF0020070BD3454401CC0B22870401E69
:101DA00070BD0000100000201C040020094910B57F
:101DB00002460020064B097804E01C5C944205D0E2
:101DC000401CC0B28842F8D34FF0FF3010BD000075
:101DD0001C0400201000002070B500F00DFC0E481F
:101DE0004FF47A714FF0FF350068B0FBF1F1491EF6
:101DF000B1F1807F0AD24FF0E02461610F212846C3
:101E000002F0B2FE0020A061072020612846BDE854
:101E10007040002102F0A8BEA400002010B50120EF
:101E200000F00CF9002808D00448006800B1804791
:101E3000BDE81040012000F0D9B810BD54040020C6
:101E400070B54FF48065284600F0F8F8234C28B1AF
:101E5000A16A01B18847284600F0C8F84FF4006530
:101E6000284600F0EBF828B1E16A01B1884728461E
:101E700000F0BCF84FF48055284600F0DFF828B198
:101E8000216B01B18847284600F0B0F84FF40055A7
:101E9000284600F0D3F828B1616B01B18847284685
:101EA00000F0A4F84FF48045284600F0C7F828B1A8
:101EB000A16B01B18847284600F098F84FF400451F
:101EC000284600F0BBF8002807D0E16B01B1884735
:101ED0002846BDE8704000F089B870BD5404002069
:101EE00010B5022000F0AAF8002808D00448406885
:101EF00000B18047BDE81040022000F077B810BD67
:101F00005404002010B5042000F098F8002808D0F0
:101F10000448806800B18047BDE81040042000F00C
:101F200065B810BD5404002010B5082000F086F8F4
:101F3000002808D00448C06800B18047BDE81040C0
:101F4000082000F053B810BD5404002010B5102034
:101F500000F074F8002808D00448006900B18047F8
:101F6000BDE81040102000F041B810BD540400201E
:101F700070B5202000F062F81B4C28B1606900B1F8
:101F80008047202000F032F8402000F057F828B1B8
:101F9000A06900B18047402000F028F8802000F0C0
:101FA0004DF828B1E06900B18047802000F01EF8AC
:101FB0004FF48075284600F041F828B1216A01B13C
:101FC0008847284600F012F84FF40075284600F0C4
:101FD00035F8002807D0616A01B188472846BDE876
:101FE000704000F003B870BD54040020014908603F
:101FF000704700001404014010B500F0B7F8042841
:1020000010D8052817D2DFE800F0030507090B00F8
:10201000062410E007240EE008240CE009240AE05E
:102020000A2408E0411F042901D8172403E00A38D4
:10203000052800D82824204610BD0000064A014685
:1020400000201268044B0A4014331B680B4202D074
:10205000002A00D0012070470004014030B51A4921
:102060008379026853B30B6893430B600A1D1368AE
:102070000468A343136002790A4413680468234385
:102080001360114A083213680468A3431360131DD8
:102090001C680568AC431C604479102C05D02144B1
:1020A0000A68006802430A6030BD11680468214371
:1020B0001160196800680143196030BD0079084457
:1020C00001689143016030BD000401402DE9FE43E9
:1020D0001E46DDF8289017460D46804670282DD202
:1020E00000F044F804460F2828D81548012140F88C
:1020F0002450084600F0D0F9404600F049F8214647
:1021000000F020F8012505FA04F0009000208DF879
:1021100004008DF805708DF806506846FFF79EFFA5
:102120004046FFF769FF8DF808008DF809608DF8CB
:102130000A908DF80B5002A800F03AF9BDE8FE8332
:102140005404002010B58A0721F003040649130F38
:1021500021440F228C689A4094438C608A6898408E
:1021600002438A6010BD000000000140024901EBFB
:102170000010808900F002B820590008002102E018
:102180004008491C89B20128FAD8C8B2704700003B
:10219000144901EB001014490068884201D1002065
:1021A00070471249884201D1012070471049884286
:1021B00001D1022070470F49884201D103207047A6
:1021C0000D49884201D1042070470C49884201D151
:1021D000052070470A49884201D106207047FF2038
:1021E000704700002059000800080140000C014021
:1021F000001001400014014000180140001C014083
:1022000000200140F0B5CA78002502F00F03D20685
:1022100001D58A7813430A784FF00F0E12F0FF0FA2
:102220004FF001021CD004680F8802FA05F637400F
:10223000B74211D14FEA850C0EFA0CF724EA0707D2
:1022400003FA0CF43C43CF78282F02D0482F02D059
:1022500002E0466100E006616D1C082DE4D30460D5
:102260000C88FF2C1ED944685FF0000606F10807B1
:1022700002FA07F50F882F40AF420FD14FEA860CC4
:102280000EFA0CF7BC4303FA0CF73C43CF78282F27
:1022900000D14561CF78482F00D10561761C082E0A
:1022A000E4D34460F0BD000010B50121084600F001
:1022B000F3F8BDE810400121014800F003B8000028
:1022C00000023000F0B5144C002801DAE36900E0A8
:1022D0006368420D120185B2C0F301579540C0F307
:1022E0000346032F05D0C2020AD50322B24093430E
:1022F00007E023F07062636823F07063636002E0BC
:10230000AB4343F0706201B12A43002801DAE26175
:10231000F0BD6260F0BD000000000140F8B5044669
:102320001C481E4615460F46844201D104201CE07D
:102330001948844201D1082017E01848844201D18D
:10234000102012E01648844201D120200DE01548EB
:10235000844201D1402008E01348844201D180200A
:1023600003E01248844213D180151C2D01D0182D92
:1023700001D140F00100012100F08EF8ADF80070AD
:102380008DF803508DF8026069462046FFF73AFF4A
:10239000F8BD000000080140000C014000100140A1
:1023A0000014014000180140001C014000200140C1
:1023B00070B50F23C47801780122F4B1144C24685D
:1023C000457804F4E064C4F5E064240AC4F104062A
:1023D000E3408478B5401C402C4301F1E021230107
:1023E00081F80034007800F01F018A404009800025
:1023F00000F1E020C0F8002170BD01F01F00824014
:102400004809800000F1E020C0F8802170BD000084
:102410000CED00E0024908430249086070470000E3
:102420000000FA050CED00E070B570280CD2124BDC
:1024300003EB0014A37B3BB131B12AB10F4B01FB7D
:1024400002F51B689D4201D9002070BD0D46B3FB0B
:10245000F5F1B1FBF2F6182102F066FC002160688C
:1024600000F085F9761E6D1EA37BB2B2A9B260683A
:1024700000F0FCFAA07B70BD20590008A4000020E9
:10248000044A0029D16901D0014300E08143D161B0
:102490007047000000100240044A0029916901D0F1
:1024A000014300E081439161704700000010024049
:1024B00030B51F494A6812F00C031E4A03D0042BA2
:1024C00001D0082B21D002604A680F231A4C03EA7E
:1024D0001212A35C0268DA4042604B68072505EAE5
:1024E0001323E35C22FA03F383604B6805EAD323EA
:1024F000E35CDA40C2604968032303EA9131231F99
:10250000595CB2FBF1F1016130BD4A684B6802F4DD
:1025100070124FF0020413F4803F04EB924202D099
:102520004B689B0301D5054B00E0024B5A43CAE7B9
:102530000010024000127A009400002000093D00C3
:102540000CB50021264801910091026842F48032C6
:1025500002604FF4A063026802F400320092019A14
:10256000521C0192009A12B9019A9A42F3D1026860
:10257000920333D5012100911A490A6842F01002F2
:102580000A600A6822F003020A600A6842F0020246
:102590000A604168416041684160416841F480617E
:1025A0004160416821F47C114160416841F4E811C7
:1025B0004160016841F08071016001688901FCD5CA
:1025C000416821F003014160416841F0020141602E
:1025D0004168C1F381010229FAD10CBD00910CBD03
:1025E000001002400020024002480168491C0160BE
:1025F0007047000014000020144910B54868144AC0
:1026000010F00C03134803D0042B01D0082B0AD080
:10261000026049680F4AC1F30311121D515C026840
:10262000CA40026010BD4A684B6802F470124FF055
:10263000020413F4803F04EB924202D04B689B03E8
:1026400001D5054B00E0024B5A43E1E70010024080
:1026500000127A00A400002000093D000F4810B5C8
:10266000016841F00101016041680D4A114041607B
:1026700001680C4A11400160016821F48021016069
:10268000416821F4FE0141604FF41F018160FFF7B2
:1026900057FF05494FF00060086010BD0010024070
:1026A0000000FFF8FFFFF6FE08ED00E010B5094C52
:1026B0000121204600F070F8002809D00648016882
:1026C00001B188472046BDE81040012100F04CB818
:1026D00010BD0000002C01409404002010B5012121
:1026E0008C07204600F058F8002809D005484168BA
:1026F00001B188472046BDE81040012100F034B800
:1027000010BD00009404002010B5094C01212046A2
:1027100000F042F8002809D00648816801B18847D6
:102720002046BDE81040012100F01EB810BD000099
:10273000000400409404002010B5094C01212046FB
:1027400000F02AF8002809D00648C16801B188477E
:102750002046BDE81040012100F006B810BD000081
:102760000008004094040020C943018270470029FA
:10277000018802D041F0010101E021F00101018056
:102780007047002930F8441F02D041F4004101E0B5
:10279000C1F30E010180704702460020138A92891E
:1027A0000B4202EA010202D0002A00D00120704749
:1027B00030B5028C22F001020284028C8388048BE3
:1027C00022F0020224F073050C882C430D89154376
:1027D0004A882A43114DA8420BD0114DA84208D077
:1027E000104DA84205D0104DA84202D00F4DA8426E
:1027F0000DD122F008054A8923F440732A4322F0C0
:1028000004058A882A438D891D43CB892B43838005
:102810000483C9888186028430BD0000002C0140F9
:1028200000340140004001400044014000480140A4
:10283000028B22F008020A430283704770B5028CB3
:1028400022F010020284028C8488038B0D8823F40A
:10285000E6464FF6FF7303EA052535430E8922F05D
:10286000200203EA061616434A8803EA021232439C
:10287000104EB04202D0104EB04215D122F0800668
:102880004A8924F4406403EA0212324322F04006EB
:102890008A8803EA021232438E8903EA86062643B7
:1028A000CC8903EA8404344384800583C988018782
:1028B000028470BD002C014000340140028B4FF6B1
:1028C000FF7322F4006203EA012111430183704780
:1028D00070B5028C22F480720284028C8488838B0F
:1028E0000D8823F073031D4322F400730E894FF605
:1028F000FF7202EA06261E434B8802EA0323334393
:10290000104EB04202D0104EB04215D123F40066F2
:102910004B8924F4405402EA0323334323F48066B2
:102920008B8802EA032333438E8902EA0616264384
:10293000CC8902EA0414344384808583C988818762
:10294000038470BD002C014000340140828B22F0D2
:1029500008020A438283704770B5028C22F48052C9
:102960000284048C8288838B0D8823F4E6464FF61C
:10297000FF7303EA0525354324F400560C8903EA66
:10298000043434434E8803EA06362643094CA042F9
:1029900002D0094CA04205D122F480448A8903EA7E
:1029A0008212224382808583C988A0F84010068461
:1029B00070BD0000002C014000340140828B4FF6B6
:1029C000FF7322F4006203EA0121114381837047FF
:1029D00030B502881B4B1C4C98420DD0A0420BD046
:1029E000B0F1804F08D0194DA84205D0184DA8422B
:1029F00002D0184DA84203D122F070054A882A431C
:102A0000154DA84206D0154DA84203D022F44075BA
:102A1000CA882A4302808A8882850A880285984269
:102A20000AD0A04208D00E4A904205D00D4A9042EA
:102A300002D00D4A904201D1097A0186012181829A
:102A400030BD0000002C0140003401400004004073
:102A500000080040000C004000100040001400403E
:102A60000040014000440140004801402DE9F0438E
:102A70004C4E4D4F87B0994690460D460446B042A5
:102A80002ED0B4F1804F2BD04848844228D04848FB
:102A9000844225D04748844222D0474884421FD0F0
:102AA000464884421CD0BC421AD04548844217D0C4
:102AB0004448844214D04448844211D0434884425C
:102AC0000ED0434884420BD04248844208D042484A
:102AD000844205D04148844202D0414884425ED1BC
:102AE0000121204600F07EF8ADF814500025ADF825
:102AF0001080ADF81650ADF8125004A92046FFF72B
:102B000067FF7020ADF800000120ADF80200022040
:102B1000ADF80800B44201D0BC4205D1ADF80C506C
:102B2000ADF80E50ADF804504846B9F1010F07D08A
:102B300002280ED0032815D0B9F1040F23D11AE0D2
:102B400069462046FFF734FE08212046FFF770FE55
:102B500019E069462046FFF771FE08212046FFF77D
:102B6000ADFE10E069462046FFF7B2FE0821204680
:102B7000FFF7ECFE07E069462046FFF7EDFE08216F
:102B80002046FFF71BFF01212046FFF7F0FDB4426E
:102B900001D0BC4203D101212046FFF7F2FD07B06E
:102BA000BDE8F083002C01400034014000040040E7
:102BB00000080040000C00400010004000140040DD
:102BC000004C0140005001400054014000180040FA
:102BD000001C004000200040004001400044014033
:102BE000004801402E4A904201D1C01455E0B0F196
:102BF000804F04D02B4A904203D102203AE00120BA
:102C000038E0294A904201D1042033E0274A90421B
:102C100001D108202EE0264A904201D1102029E05F
:102C2000244A904201D1202024E0234A904201D13D
:102C3000401432E0214A904202D14FF400202CE0AF
:102C40001F4A904202D14FF4801026E01D4A904264
:102C500002D14FF4001020E01B4A904201D14020E5
:102C600008E01A4A904201D1802003E0184A9042BD
:102C700002D18015FFF704BC164A904202D14FF4EE
:102C800080300AE0144A904202D14FF4003004E050
:102C9000124A904203D14FF48020FFF7FDBB7047EA
:102CA000002C01400004004000080040000C0040DF
:102CB000001000400014004000340140004C01406E
:102CC000005001400054014000180040001C00402A
:102CD0000020004000400140004401400048014005
:102CE000014800F009BB0000F4010020014800F099
:102CF00003BB000090020020014800F0FDBA000074
:102D00002C0300200A0A01219140C9430180704729
:102D10000029818902D041F4005101E021F40051E1
:102D2000818170470246002012880A4200D00120AB
:102D3000704730B501F01F0201240025C1F3421392
:102D400004FA02F2012B0FD0022B0FD0838A4FEA34
:102D500011210088134204FA01F400EA040001D0B2
:102D600000B10125284630BD8389F0E7038AEEE7EC
:102D700010B5C1F3421301F01F040121A140012B42
:102D800007D0022B07D01430002A026805D00A436E
:102D900004E00C30F8E71030F6E78A43026010BD1B
:102DA00030B50446008A85B00D464CF6FF710840E8
:102DB000E98801432182A1894EF6F3100140A888D9
:102DC0002A8910436A890A431043A081A08A4FF6DA
:102DD000FF410840A9890143A1826846FFF768FBCB
:102DE0001948844201D1039800E00298A18909049E
:102DF00000EBC00101EB0010296801D5490000E09B
:102E00008900B0FBF1F06422B0FBF2F109010B097B
:102E10006FF018056B4300EB8300A3891D044FF08E
:102E2000320306D503EBC000B0FBF2F000F0070060
:102E300005E003EB0010B0FBF2F000F00F000843D8
:102E4000208105B030BD0000003801408088C0F30B
:102E500008007047C1F308018180704730B5002336
:102E6000094D0EE0CC5C444005EB14105B1C00786F
:102E700080EA0410C0B205EB1014247884EA001034
:102E8000C0B29342EED330BD1059000810B50421F2
:102E9000152001F049FFBDE810400249024800F04A
:102EA000ADB90000112F000870010020044850F84F
:102EB000801FC968828900685140C1607047000066
:102EC00020590008014801F06BBD0000B800002047
:102ED00010B5152001F0F4FE28B10021BDE8104026
:102EE000024800F08DB90121F8E7000070010020D0
:102EF0004840002102064FEA40604FEA106001D5C9
:102F000080F00700491CC9B20829F3D370470000BC
:102F1000144A10B5904224D1012915D0022920D19C
:102F20000022114800F0DEFA0021182001F0D8FE3E
:102F30000E4801F083F80D4801F054FDBDE8104043
:102F40000BA10E4800F0E9BB01220221064800F067
:102F5000C9FA064801F01CF9BDE81040034800F02A
:102F60003FBF10BD7001002000000020B80000200D
:102F7000706F776572206F6666000000F4010020B4
:102F800010B501F0CBFE0146BDE81040014800F04D
:102F9000B5BA00000000002038B51021182001F05B
:102FA000C3FE0121182001F09BFE4FF4E1311248CD
:102FB00000F0C6F9012000F079F8FFF767FF00F094
:102FC000FFF800F023F801240A230C4A00210C48E2
:102FD000009400F069FA002000904FF47A73094AD7
:102FE0000221074800F060FAFA23074A0121044849
:102FF000009400F059FA38BDF4010020D12E0008E9
:1030000000000020AD2E0008C52E000838B515229E
:103010000F21254801F0D0FB2D200246009000230F
:103020006FF01301204801F003F902211E4801F05E
:103030001EF9C82243F2B0611B4801F039FA4FF47F
:10304000FA54C8222146184801F04EFB4FF4A072F2
:103050002146154801F04AFB02224FF42F61124825
:1030600001F0E8FA022241F204010F4801F088FA67
:1030700040F66E710C4801F01AF9142340F6E44250
:103080000021094801F00AF96421074801F011F90B
:10309000054801F0C9F8044801F07AF8BDE8384065
:1030A000014800F09DBE0000B800002070B5044645
:1030B0000021234800F0DDFB002C3FD021A1274850
:1030C00000F02BFB0025012421461D4801F0D9FC0E
:1030D0001B4801F0C6FC10B1042815D023E020A144
:1030E0001E4800F0A9FA102C03D225A11B4800F0BD
:1030F000A3FA10222146194800F0A4FA21A117488A
:1031000000F00BFB6D1C0EE01FA1144800F094FAB8
:10311000102C03D21AA1114800F08EFA1022214679
:103120000E4800F004FB641CE4B27F2CCCD32A468A
:10313000BDE870401BA1094800F0D1BA70BD000085
:1031400090010020493243206465766963652073ED
:1031500063616E6E696E672E2E2E0000F4010020F2
:103160004932432064657669636520666F756E64D5
:10317000206174206164647265737320307800008C
:103180003000000020210000556E6B6E6F772065C7
:1031900072726F722061742061646472657373204F
:1031A00030780000256420493243206465766963E5
:1031B00065732077617320666F756E640D0A000079
:1031C0001021082001F0B0BD70B505460849002067
:1031D0008024087034EA050008D006A10448FDF7F1
:1031E00050FA6410002CF5DC014870BD02A1F5E72F
:1031F000E80100203000000031000000C16170478C
:1032000070B50446C0690D46002869D0607E01266D
:10321000D0B101F083FD2169401AE188884229D3A9
:10322000E078A84226D002202071A07EC0B101F033
:1032300075FDE168401A218988423CD301F06EFD9A
:10324000E0600321E26934E0E078A84248D0667685
:103250002670267101F062FD20610121E26924E0FF
:10326000E26902212046904701F058FDE060A67611
:10327000A67020E0607E002832D0E078A8421DD100
:1032800000206076A0766670207101F047FD6061D5
:1032900001F044FD2169401AE188884203D2E269C5
:1032A000062120469047E269042120469047E269C2
:1032B000052120469047607E002811D001F02EFDA8
:1032C0006169401AC8280BD2E078A84208D0207E55
:1032D000401C20762046E269BDE870400721104777
:1032E00070BDC170C2800381002101614161C16074
:1032F00041768176C161704770B5044640F225552C
:1033000000692946FFF715FD002818D02069FFF74E
:103310009DFDC2B2208B618B401C00F07F0081427A
:1033200004D0238B04F11C015A542083606900B13E
:10333000804729462069BDE87040FFF7E3BC70BDB7
:103340000022AFF3008008B503230093012300F0AF
:1033500001F808BD2DE9FF4F90463F4A0169DFF8AB
:10336000FCA087B09B4606464FF4806991420AD183
:10337000012144F20400FFF78FF84FF400704D462E
:10338000544625271FE0364A91420CD101214804BA
:10339000FFF776F801210420FFF77EF804200825C6
:1033A000544626270FE02F4A91420CD10121880470
:1033B000FFF766F801210820FFF76EF82A4C48460F
:1033C0004FF400652727ADF8100003208DF8120098
:1033D00018208DF8130004A92046FEF713FFADF85E
:1033E000105004208DF8130004A92046FEF70AFFB0
:1033F0008DF814708DF815B014988DF81600012012
:103400008DF8170005A8FEF7D3FF0898009008F480
:103410007040ADF8040008F47060ADF8080008F0E2
:10342000F0000002ADF806000020ADF80C000C2002
:10343000ADF80A0069463069FFF7B2FC012240F29C
:1034400025513069FFF794FC01213069FFF760FCDA
:103450000BB0BDE8F08F00000038014000080140CB
:103460000044004000480040000C014070B50D468B
:10347000044680212069FFF755FC0028F9D0294631
:103480002069FFF7E7FC012070BD000000224FF427
:103490007A73C0E90123034B0360C0E9041242833D
:1034A0000283704700610008F0B501EB8104042637
:1034B000056806EB8406059F55F806C0BCF1000FB1
:1034C0000ED190F804C08C450AD9AA51016801F8C0
:1034D00024700068082101EB840143500120F0BDF5
:1034E0000020F0BD03798B4206D9006801EB810111
:1034F00000F8212001207047002070472DE9F04797
:1035000000240426894605460C2720E004EB8401AC
:10351000286806EB81028358BBB110F82130A3B1B3
:1035200007EB810350F80380A9EB080C4FF0080863
:1035300008EB810141588C4507D340F80390286877
:10354000805880476879002804D1641CE4B2287947
:10355000A042DBD8BDE8F08710B501EB810104245F
:10356000036804EB810400221A510368082404EB69
:10357000810403F8212003681A5100680C2303EB2F
:103580008101425010BD70B50446427100680D467D
:1035900008B101F0B8FA05EB8500800001F0B7FA38
:1035A00020602571002505E029462046FFF7D4FF5D
:1035B0006D1CEDB22079A842F6D8204670BD10B53A
:1035C0000446006808B101F09EFA204610BD2DE9BE
:1035D000F04190B0002419468046169F9446264636
:1035E0006D4652EA01000FD13021404600F027F825
:1035F000012010B0BDE8F0813A4600236046FCF798
:1036000070FE2A558446641C5CEA0100F4D174B152
:10361000281910F8010C0A2801D2303000E03730A8
:10362000C1B2404600F00BF80644641EEFE7304696
:10363000DFE7026852681047026852681047026864
:103640001268104708B5002300920A4600F028F8D7
:1036500008BD08B5CB1700920A4600F001F808BD76
:10366000F8B51546069E1C4607468EB1002C07DAB3
:103670002D21FFF7E4FF204600246D4264EB000497
:10368000F0B200902A4623463846FFF7A0FFF8BD67
:103690003868D1B2026801B03846BDE8F040104742
:1036A00008B5029921B1C9B20091FFF790FF08BD9A
:1036B000D1B20268126801B05DF804EB104770B532
:1036C0000C460646002505E03068641C026830465A
:1036D00090476D1C21780029F6D1284670BD0FB4A3
:1036E000802130B5A1B0054626AB6846259AFCF787
:1036F0006FFE044669462846FFF79EFF21B020462C
:1037000030BC5DF814FB70B50546FFF792FF044628
:10371000284600F02DF8204470BD70B50546FFF72F
:103720008BFF0446284600F023F8204470BD70B596
:103730000546FFF787FF0446284600F019F82044A5
:1037400070BD70B50546FFF784FF0446284600F0BB
:103750000FF8204470BD38B5044600920A46CB17D6
:10376000FFF77EFF0546204600F002F8284438BDEA
:1037700070B505460D21FFF762FF04460A21284671
:10378000FFF75DFF204470BD70B50446002100F0D6
:10379000E1F80121204600F0F2F80121204600F076
:1037A000D9F894F8560001F08BFA30B100250021C9
:1037B000204600F0CFF8284670BD0125F7E710B588
:1037C0000446002100F0DBF80121204600F0C2F899
:1037D0002046BDE81040002100F0BCB870B5064698
:1037E0000025012100F0CBF800240121304600F033
:1037F000B1F896F8560001F063FAC4F10701884069
:103800002843C5B20021304600F0A4F8641C082CFF
:10381000EBDB284670BD10B50446012100F0AFF87F
:103820000121204600F096F82046BDE81040002116
:1038300000F090B82DE9F04100240E46074601251E
:10384000C4F1070105FA01F0304201D0012100E086
:103850000021384600F093F80121384600F07AF84C
:103860000021384600F076F8641C082CE8DBBDE83F
:10387000F08110B50446002004F8520F1421607046
:1038800004F8220C04F8210CE07801F04DFA2079BC
:103890001421523C01F048FA0121204600F05AF868
:1038A0002046BDE81040012100F069B870B504461B
:1038B0000020608120794006050EE088012801D1B2
:1038C00045F00105204600F076F829462046FFF72E
:1038D000B1FF2046FFF758FF20B1E088012819D03A
:1038E00000252AE0204600F057F8022070BD20464F
:1038F000FFF774FF02466089E368411C61811A5436
:10390000608921898842204602D2FFF758FF01E0F2
:10391000FFF781FF608921898842E8D310E0E068E1
:10392000415D2046FFF786FF2046FFF72DFF60B17F
:103930006089401C6D1C6081EDB22089A842EED8E0
:10394000204600F029F8002070BD204600F024F841
:10395000032070BD70B504460D4690F8540001F088
:103960008FF994F85500294601F0BAF9002D05D0D9
:1039700094F8550001F0A4F90028F9D070BD70B595
:1039800004460D4614F8540F01F07AF9A078294640
:10399000BDE8704001F0A4B910B504460021FFF75E
:1039A000EEFF01212046FFF7D5FF2046BDE810407D
:1039B0000121FFF7E4BF10B504460021FFF7DFFF48
:1039C0002046BDE810400021FFF7C4BF10B5044CED
:1039D000046080F8543080F8551080F8562010BDEF
:1039E0002461000803490160002180F8551080F827
:1039F00056107047246100082DE9F041044662A189
:103A00006548FFF719FE0021204600F011F9C1B208
:103A1000624E0D460A2231805F48FFF792FE207CFD
:103A2000318808437DD0280607D55DA15A48FFF7A5
:103A300074FE0121204600F015F9A9064FF00000A0
:103A400070D0217C012901D1C4F8B000358001F08B
:103A500065F9D4F8B410401A4FF47A71B0FBF1F163
:103A6000D4F8B000081A00D54042022801DDC4F89D
:103A7000B010D4F8B00088427ED8A9060ED5032134
:103A8000B0FBF1F201FB120040B94AA14248FFF736
:103A90003AFE20220021204600F078F9E80610D5F1
:103AA000D4F8B0000A21B0FBF1F201FB120040B9DA
:103AB00045A13948FFF727FE10220021204600F0DB
:103AC00065F9280714D5204600F0D0F994F8550080
:103AD000D4F8901004EB80008069884208DD40A192
:103AE0002D48FFF710FE08220021204600F04EF975
:103AF000680714D5204600F0B9F994F85400D4F8BA
:103B00008C1004EB80008069884208DA39A12248D1
:103B1000FFF7F9FD04220021204600F037F9A8073D
:103B200001E02EE02BE04FF03C070FD5D4F8B000B9
:103B3000B0FBF7F107FB110040B933A11648FFF7BE
:103B4000E2FD02220021204600F020F9E8070FD014
:103B5000D4F8B000B0FBF7F107FB110040B92FA17A
:103B60000D48FFF7D0FD01220021204600F00EF99C
:103B700054F8B00F401C00E002E0206000E030800C
:103B80003088BDE8F0810000636865636B53746141
:103B90007475733A20000000F40100200800002032
:103BA000496E746572727570743A20434320726571
:103BB00061647900436C656172696E6720585220B8
:103BC0006572726F72000000436C656172696E67A6
:103BD00020416C657274206572726F720000000083
:103BE000436C656172696E67205556206572726F0D
:103BF00072000000436C656172696E67204F562049
:103C00006572726F72000000436C656172696E6765
:103C100020534344206572726F720000436C6561EB
:103C200072696E67204F4344206572726F720000A4
:103C300070B50D4604464168094800F02DFF29463D
:103C4000074800F049FF064800F00BFF0122044836
:103C5000616800F003FFBDE87040014800F01FBF3D
:103C6000900100202DE9F0410D4604462EA1324876
:103C7000FFF753FD00212046FFF7DAFFC7B20DB969
:103C800038064ED533212046FFF7D2FF05463221B4
:103C90002046FFF7CDFF45EA002006B227A12648BF
:103CA000FFF7CAFC0A2231462348FFF74AFD002EDF
:103CB00037DB607A01F03AFA05468846304601F073
:103CC0001EFA224A224B01F045FA2A46434601F0E9
:103CD0008FF801F0E5F920661EA11748FFF7ACFC4C
:103CE0000A221548216EFFF736FD206E00250930A7
:103CF000132800D22566A16F206E884203DD01F0F3
:103D00000DF8C4F8AC00B80600D12574802200215B
:103D1000204600F03BF8BDE8F04112A10648FFF74D
:103D2000FCBCBDE8F081000075706461746543758A
:103D30007272656E74000000F40100202D2D637511
:103D40007272656E745F6164633A0000E17A14AE6A
:103D500047E120402D2D62617443757272656E7467
:103D60003A00000075706461746543757272656E27
:103D7000743A20757064617465642C204343206636
:103D80006C616720636C6561726564002DE9F041C8
:103D90000C46054641680027D6B2104800F07CFE6C
:103DA00021460E4800F0ACFE31460C4800F0A8FE5B
:103DB00028794006010E3846FFF79AF82146FFF7AA
:103DC00097F83146FFF794F80146044800F098FE52
:103DD000BDE8F041014800F044BE00009001002021
:103DE00010B5044610A11448FFF797FC2046FFF7D2
:103DF00003FE28B111A11048FFF78FFC002010BD71
:103E0000042200212046FFF7C1FF05212046FFF7CD
:103E10000FFF432205212046FFF7B8FF0DA10648FA
:103E2000FFF77BFC012010BD656E61626C65436825
:103E3000617267696E670000F4010020656E61625F
:103E40006C654368617267696E673A206661696C88
:103E500065640000656E61626C65436861726769E4
:103E60006E673A20656E61626C6564002DE9F84FFB
:103E7000044659A15C48FFF750FC5CA15A48FFF783
:103E80004CFC002684F8546084F855603546DFF811
:103E900078A14FF4FA7847E00C2000EB4500C1B25E
:103EA000204600F025F9C0F30D07D4F8A00001F07A
:103EB000D3FA8146D4F89C00784301F0CDFA5146FC
:103EC00001F0E2FA494601F043FA01F0A9FA04EBE5
:103ED00085074045B86100DD761C94F8542004EB5A
:103EE00082029269904201DD84F8545094F8552082
:103EF000B86904EB82029269904203DA404501DD21
:103F000084F855500A22691C3748FFF7A2FB3FA1ED
:103F10003548FFF791FB0A223348B969FFF799FB4F
:103F20003148FFF725FC6D1C6069A842B4DC2A21EA
:103F3000204600F0DDF80546D4F8A0005434704364
:103F400001F08AFA0646284601F086FA0546A06C7A
:103F500001F082FA022101F050FC294601F094FAA6
:103F6000514601F091FA314601F0F2F901F0CEFB31
:103F7000C4E9010129A11C48FFF75EFB0A2000905B
:103F8000D4E901231848FFF76BFB1748FFF7F0FB54
:103F900026A11548FFF750FB14F854090A2204EB38
:103FA000800081691048FFF754FB22A10E48FFF7FB
:103FB00043FB94F855000A2204EB800081690A480B
:103FC000FFF747FB0848FFF7D3FBBDE8F84F07A111
:103FD0000548FFF7A2BB0000757064617465566FF9
:103FE0006C74616765730000F40100202D2D2D2D88
:103FF0002D2D2D2D2D2D2D2D2D2D2D2D2D2D2D2DF1
:104000002D2D2D2D000000006F12833A2D2D63659C
:104010006C6C566F6C74616765733A0042617456DC
:104020006F6C74616765733A000000004D61783A07
:104030000000000020204D696E3A000010B50446D3
:1040400007A10C48FFF769FB05212046FFF7F0FDAB
:1040500000F0410205212046FFF798FE012010BD27
:1040600064697361626C65414C4C4D6F7366657435
:1040700000000000F401002038B5044600780D4629
:1040800058B32079012101EB40008DF8000017485A
:10409000616800F001FD2946144800F01DFD134839
:1040A00000F0DFFC02221148616800F0D7FC0F48E5
:1040B00000F0F5FC8DF801000C4800F0F0FC8DF8E4
:1040C0000200022269460020FEF7C8FE9DF8021099
:1040D0008842DCD19DF8010038BD012203486168A7
:1040E00000F0BCFC014800F0DAFC38BD9001002073
:1040F0007CB50D4604464168244800F0CDFC2946B5
:10410000224800F0E9FC214800F0ABFC20780028B0
:1041100033D06168012000EB41008DF800000422DB
:104120001A4800F09BFC194800F0B9FC8DF801001A
:10413000164800F0B4FC8DF80200144800F0AFFC03
:104140008DF80300114800F0AAFC8DF8040002224B
:1041500069460020FEF782FE9DF802104FF0FF3402
:10416000884209D1012200200DF10301FEF776FEFD
:104170009DF80410884201D020467CBD9DF80300C4
:104180009DF8011040EA01207CBD00009001002054
:1041900010B5044610A11548FFF7BFFA2046FFF7F7
:1041A0002BFC28B112A11148FFF7B7FA002010BD6F
:1041B0001B2200212046FFF7E9FD05212046FFF7DD
:1041C00037FD422205212046FFF7E0FD0FA10748F9
:1041D000FFF7A3FA012010BD656E61626C6544694A
:1041E000736368617267696E67000000F401002004
:1041F000656E61626C654469736368617267696E5C
:10420000673A206661696C6564000000656E6162F2
:104210006C654469736368617267696E673A2065AB
:104220006E61626C65640000012180F8A410704723
:1042300010B501EB81014900029CC0F8801002EB2F
:1042400082014900C0F8881003EB8301490040F85F
:104250007C1F04EB84014900816010BD10B5044649
:1042600000F05CFDC4F8B4000120207410BD417260
:10427000704710B5044608206060012020701922A4
:104280000B212046FFF782FD0B212046FFF7D0FCD3
:10429000192801D0002010BD012010BDC1EB011173
:1042A0008900C0F8A81040F8942F03717047C160CE
:1042B00070478167704700002DE9F04F044685B0D4
:1042C00060A16648FFF729FA00F028FDD4F8AC1089
:1042D0004FF47A76401AB0FBF6F5052160694FF08D
:1042E000000890FBF1F0C7B2002D05DAC4F8AC80ED
:1042F00000F014FDB0FBF6F52046FFF77DFB00282B
:104300007ED1D4F8A800A8427ADC94F85400D4F8FE
:10431000941004EB80008069884277DD94F8551092
:1043200004EB81018969401A94F8981088426DDD88
:10433000012084F8A5004AA14848FFF7EEF90026BD
:10434000EB465CE094F85500002104EB800094F803
:104350009890D0F818A00A4606EB8603981804EB4C
:1043600080008569A5EB0A0CCC4515DD084602E006
:104370004BF820C0401E00280BDD0BEB800C5CF8D6
:1043800004CC03EB0C0804EB8808D8F81880A84587
:10439000EEDB4BF82020491C521C052ADEDB0025F1
:1043A00028460123DC460DE01CF8202003FA02F227
:1043B0002A43D2B215EA420F03D112EA450F00D1C7
:1043C0001546401C8842EFDB2AA12448FFF734F948
:1043D0000A22711C2148FFF73CF92AA11F48FFF768
:1043E0002BF92846FEF7F0FE01461C48FFF795F929
:1043F000701CC1B22A462046FFF7C8FC761C00E0BC
:1044000004E0BE429EDB05B0BDE8F08F94F8A50045
:104410000128F8D100250FE01EA11048FFF70CF984
:104420000A22691C0D48FFF78CF9681CC1B20022F2
:104430002046FFF7ABFC6D1CBD42EDDB404684F827
:10444000A580E0E775706461746542616C616E63BC
:10445000696E67537769746368657300F4010020BF
:1044600042616C616E63696E6720656E61626C6546
:104470006421000053657474696E672043454C4C99
:1044800042414C0020726567697374657220746FD5
:104490003A200000436C656172696E67205265675F
:1044A00069737465722043454C4C42414C000000D6
:1044B0002DE9F04789460646904626A12748FFF792
:1044C0002CF904F0F80040F08005707A244F07249E
:1044D0004FF47A7100FB09F090FBF1F257F82430A9
:1044E0009A420BDB64F302051EA11C48FFF7A4F8F7
:1044F0000A2221461948FFF724F902E0641E002C25
:10450000EADC25F0180416480325103850F8252059
:1045100042450BDC65F3C40416A11048FFF78CF884
:104520000A2229460D48FFF70CF902E06D1E002D06
:10453000ECDC224606213046FFF728FC04F0070099
:104540004FF47A7157F820004843717A90FBF1F0EC
:10455000BDE8F0877365745343440000F401002004
:1045600090580008534344207468726573686F6CF8
:10457000643A20005343442064656C61793A20001A
:104580002DE9F0410C460646904623A12448FFF74A
:10459000C4F808213046C6F88C40FFF749FBC5B285
:1045A000D6F8A0004FF47A71201A4843D6F89C1030
:1045B00090FBF1F0C0F307173A4609213046FFF7A8
:1045C000E5FB184825F030050324025D42450BDC6D
:1045D00064F3051514A11248FFF72EF80A222146AC
:1045E0000F48FFF7AEF802E0641E002CEDDC2A460F
:1045F00008213046FFF7CAFB4FF4005056F89C1FC5
:1046000040EA071048434FF47A7190FBF1F071686B
:104610000844BDE8F08100007365744F56500000F7
:10462000F40100207C5800084F565F44454C415926
:104630003A2000002DE9F0410C460646904623A1A1
:104640002448FFF76AF808213046C6F89040FFF783
:10465000EFFAC5B2D6F8A0004FF47A71201A484399
:10466000D6F89C1090FBF1F00009401CC7B23A4606
:104670000A213046FFF78AFB174825F0C0050324BE
:10468000025D42450BDC64F3871514A11148FEF767
:10469000D3FF0A2221460F48FFF753F802E0641EB9
:1046A000002CEDDC2A4608213046FFF76FFB4FF463
:1046B000805056F89C1F40EA071048434FF47A7127
:1046C00090FBF1F071680844BDE8F08173657455A2
:1046D00056500000F40100207858000855565F44F9
:1046E000454C41593A200000704700002DE9F04741
:1046F00089460646904625A12648FFF70EF8707AAF
:1047000004F0F005244F0F244FF47A7100FB09F0F8
:1047100090FBF1F257F824309A420BDB64F3030567
:104720001EA11C48FEF788FF0A2221461948FFF700
:1047300008F802E0641E002CEADC25F0700416483C
:104740000725203850F8252042450BDC65F3061478
:1047500016A11048FEF770FF0A2229460D48FEF701
:10476000F0FF02E06D1E002DECDC224607213046F2
:10477000FFF70CFB04F00F004FF47A7157F820009C
:104780004843717A90FBF1F0BDE8F0877365744F90
:1047900043440000F4010020D05800084F43442057
:1047A0007468726573686F6C643A20004F434420EC
:1047B00064656C61793A200070B50D460446164672
:1047C00000214848FFF755F80020014605E000BFEA
:1047D00004EB8002401CC0B2916162698242F7DC46
:1047E0001021304600F0A0FA0121304600F078FA9E
:1047F000052000F03BFA0421304600F095FA0A202B
:1048000000F034FA2046FFF734FD002863D036A1CB
:104810003F48FEF782FF3FA13D48FEF70DFF0A2209
:104820003B486168FEF78DFF3DA13948FEF704FF64
:1048300021780A223648FEF784FFFF220021204615
:10484000FFF7A4FA182204212046FFF79FFA38A1A7
:104850002F48FEF762FF402205212046FFF796FA17
:104860003CA12B48FEF759FF0421284600F05CFAD2
:104870003B4808223B494460284600F0F0F95121AA
:104880002046FFF7F9FBC4F8A00037A12048FEF747
:10489000D3FE0A221E48D4F8A010FEF752FF502182
:1048A0002046FFF7E9FB00F00C00450059212046A7
:1048B000FFF7E2FB45EA501000F26D1044F89C0F40
:1048C0002DA11348FEF7B8FE0A2211482168FEF711
:1048D00038FF002070BD2CA10D48FEF71EFF0120FF
:1048E00070BD000090010020416464726573732004
:1048F000616E642043524320646574656374696F1C
:104900006E207375636365737366756C00000000D9
:10491000F4010020416464726573733A2000000062
:1049200043524320456E61626C65643A200000008A
:10493000746865726D6973746F72202854454D50A8
:104940005F53454C2920616E6420414443206F6EC3
:104950000000000043435F454E206F6E00000000E2
:1049600008000020D14900086164634F66667365E2
:104970007420726561643A006164634761696E2006
:10498000726561643A000000424D5320636F6D6DA3
:10499000756E69636174696F6E206572726F720003
:1049A00010B5044607A10948FEF7B7FE2046FFF7F9
:1049B0005DFA2046FFF720F82046BDE81040FFF7DB
:1049C0007BBC00007570646174650000F401002018
:1049D00003484068002801D0FFF740BC7047000042
:1049E0000800002010B5044600220421FFF7CEF98C
:1049F000012204212046FFF7C9F920460222BDE822
:104A000010400421FFF7C2B901724260012904D0AD
:104A1000022904D00F21416170470521FBE70A21DB
:104A2000F9E710B50446202A00DD2022A1800120EC
:104A3000E080228194F8301004F110000844E06016
:104A4000206801682046884794F83100A17A08441C
:104A5000C0B284F831000021E18010BDC9B2FFF777
:104A6000E0BF10B5044690F8530008B1012010BD16
:104A70002068016820468847002104F8521F6170B1
:104A800010BD818090F8522000F132011144C160C4
:104A900000210181C1807047C9B2FFF7F2BF10B594
:104AA00090F8302090F831400021A24204D100F863
:104AB000301F4170002010BD641E00F11003A2429F
:104AC00005D1D25C00F8301F4170104610BD511C5A
:104AD00080F83010D05C10BD10B590F85220202A1C
:104AE0000AD0134600F13204521C80F852201955A6
:104AF0000189491C018110BD012180F8531010BDAE
:104B0000C9B2FFF7E9BF10B5FBF7C4FB10BD10B584
:104B100000F002F810BD000010B5040007D1012418
:104B200005E0FCF7B5FA006800B904488047204664
:104B3000FBF75DFE0028F4D010BD000079130008DB
:104B4000490050EAC12018BF04204A0D18BF40F0A8
:104B5000010040F2FF72B2EB515F08BF40F002006B
:104B6000012808BF052070470907090E002804DB4B
:104B700000F1E02080F80014704700F00F0000F111
:104B8000E02080F8141D704710B505231722162168
:104B90000448FEF71BFFBDE81040034A0349FBF73A
:104BA00059BD00009001002000000008E539000810
:104BB000C8234FF47A7200210148FEF792BB00002F
:104BC0007001002000B507490748FEF75FFC064862
:104BD00006499C30FEF75AFC054906485DF804EB8F
:104BE000FEF754BC00380140F401002000440040AE
:104BF000004800402C0300200448054901601C3097
:104C0000044901601C30044901607047C80300205A
:104C10000030014000380040003C004010B5082240
:104C200003210748FFF7F0FE012203210548FEF7A4
:104C3000AAFCBDE81040044A0449FBF70BBD000084
:104C4000B80000200000002000000008BF35000868
:104C500030380A2801D2012070470020704708B57B
:104C6000012300930223FDF731FA08BD03490A68C6
:104C700010440A688242FCD37047000014000020F0
:104C8000F0B50D4A4FF0E024002115680B4AB5FB42
:104C9000F2F3A26943434FF47A76A069121A002A0C
:104CA00001DD114403E0B5FBF6F73A4411449942A3
:104CB00001D80246F1E7F0BDA400002040420F00F9
:104CC000702809D2054901EB0010016889688089C4
:104CD000014201D001207047002070472059000890
:104CE000702807D2054A002902EB0010818900686C
:104CF00001D00161704741617047000020590008F0
:104D00004FF4A060FDF786FBFDF7CEFAFDF764F8DF
:104D1000FEF742F9FEF734F9FCE7000001480068AD
:104D2000704700001400002070B5702831D2194A75
:104D300002EB0014C9B1042917D0282915D048293D
:104D400013D0142911D010290FD01C290DD01829E7
:104D50000BD0012912D002291BD1BDE8704042F2CC
:104D600010724FF47A71FDF75FBBA5890A46294698
:104D70002068BDE870400323FDF7D0BAE17BFF292E
:104D800007D00021FFF7D0FFE07BBDE87040FCF7C3
:104D9000BFBF70BD2059000810B500290AD008789F
:104DA000002807D005487844FBF778FC002801D09C
:104DB000002010BD0248784410BD0000A61300007A
:104DC0009E13000010B500290AD00878002807D0EB
:104DD00005487844FBF762FC002801D0002010BD94
:104DE0000248784410BD00008A14000082140000BC
:104DF0002DE9C04130B4DFF8A0C23CEA111418BF5D
:104E00003CEA131400F0EC8081EA03051CEA11145B
:104E100044EAD57418BF1CEA131500F0C780A4EB50
:104E200005044FF0004545EAC12145EAC32341EAA4
:104E3000505143EA525304F17F74994204F500340F
:104E40004FEAC0204FEAC22208BF904200F09C8087
:104E50004FEA13650FF24016765D4FEA134506FBE5
:104E600005F7C7F1807706FB07F74FEAD737A7FBAF
:104E700003687642C8F58038A7FB06CE38BFA8F194
:104E8000010807FB08E64FF0000EA6FB028CE6FBCC
:104E900003CEDCF1000CCEF1004E38BFAEF1010EB6
:104EA000A6FB0C584FF000074FF00005E6FB0E87FD
:104EB000A1FB08C6A0FB07CE16EB0E0645F10005C8
:104EC000E1FB076515F1E04E7EBFA4F580345FEA93
:104ED00046066D4116F1800745F100054FEA172798
:104EE0004FEA066647EA0567A6F1DE46B6F1805F3F
:104EF0004FEA15251FD9384624F0010C05EBC47183
:104F0000BCF1FE6F01EB0C1102D8F0BCBDE80081D2
:104F100024425CBF01F5801E9EEAC47F02D4F0BC2F
:104F2000BDE80081244238D4F0BCA1F1C041BDE805
:104F3000004100F007BA4FEAD22242EA43524FEA58
:104F4000D323A7FB02864FEAD02040EA415007FB5B
:104F500003661EEA0E0F4FEAD12105FB026658BF19
:104F6000A6EB0056B6EB00564FEA520E4EEAC37E51
:104F700018EB0E0E56EB530EBDD518EB02085E4132
:104F80007F1C55F10005B6E74FF480154FF0000780
:104F90004FF000064FF00008ADE7F0BC4FF0000006
:104FA00001F1C04101F00041BDE8008111EA0C1F90
:104FB0000CEA131500D00CE013EA0C1F00F025805A
:104FC0004FF00000F0BC81EA030101F00041BDE8B0
:104FD0000081F0BCBDE8004181EA030100F0B2B9F4
:104FE000F0BCBDE8004170B500F05EF9097EFC3E02
:104FF00000F007B881EA03014FF0000001F0004122
:10500000704781EA030100F09DB9F0BCBDE80041A2
:105010004FF0000021497047FFFDFBF9F7F5F4F26E
:10502000F0EEEDEBE9E8E6E4E3E1E0DEDDDBDAD843
:10503000D7D5D4D3D1D0CFCDCCCBCAC8C7C6C5C4A1
:10504000C2C1C0BFBEBDBCBBBAB9B8B7B6B5B4B3B8
:10505000B2B1B0AFAEADACABAAA9A8A8A7A6A5A4A3
:10506000A3A3A2A1A09F9F9E9D9C9C9B9A99999867
:105070009797969595949393929191908F8F8E8E0A
:105080008D8C8C8B8B8A8989888887878685858497
:1050900084838382828181800000FF070000F87F83
:1050A0004FEA41034FEA5353A3F58063D3F11E0344
:1050B000C8BFD3F1210C0CDD4FF0004242EAC122FF
:1050C00042EA505232FA03FC8CEAE17CACEBE1702C
:1050D0007047102BC4BF0020704703F5787CBCF1EB
:1050E000FF3F04D06FF0004282EA2100704770B5A4
:1050F00000F0DAF84992248000207047F2E710F0BF
:10510000004248BF4042B0FA80F310FA03F10AD0DF
:10511000C3F11D0303F580634FEA415002EB0352D4
:1051200002EBD12170474FF000007047B0FA80F3D6
:1051300010FA03F10AD0C3F11D0303F580634FEAAF
:1051400041504FEA035202EBD12170474FF000006B
:1051500070470000DFF848C170B51CEA111E1EBF81
:105160001CEA13159EEA0C0F95EA0C0F00F06F80F5
:1051700081EA030423EA4C134EEAD47E21EA4C115F
:1051800041F4801143F48013AE44A1FB024CA0FB18
:105190000365AEF17F7E361955EB0C05A1FB034C80
:1051A0004CF10003A0FB021C16EB0C06654153F109
:1051B0000003094218BF46F0010613F4007F0BD12B
:1051C0004FEA03314FEA0530340341EA155140EA12
:1051D00016506FF003020AE04FEAC3214FEAC520E0
:1051E000F40241EA555140EA56506FF0020202EBD8
:1051F0002E4201EB025585EACE710AD05FEA440CDB
:1052000018BF24F0004450F1000041F1000120EAF1
:10521000D47040F2FE7C624500D270BDA84214BF3B
:105220004FF080444FF04044002E08BF0024BEF1F0
:10523000806FA8BFA1F1C041BDE8704080F28280BC
:105240004FF0000001F1C04101F0004170479EEABB
:105250000C0F0CEA131518BF95EA0C0F06D04FF08F
:10526000000081EA030E0EF0004170BD00F01CF852
:105270008900013E00F007B800F009B84FEA430C7E
:105280005FEA5C5C08D081EA030100F05BB84FEA9A
:10529000410C5FEA5C5CF6D14FF0000001497047B9
:1052A0000000FF070000F87F0EF1020E2EF0030E43
:1052B0005EF8046B364205D4012A43EB030515F56D
:1052C000001F12D8012841EB010C1CF5001F0CD85F
:1052D0000ED14FEAD17C15F5001F0CEB4C0C0CF1F4
:1052E000020C08BF4CEBD37C04E04FF0080C01E04B
:1052F0004FEAD37C0CEB4C0526FA05F606F00706C0
:10530000B6F1040C06D20EEB860CBDE870404CF0F2
:10531000010C6047DFE80CF0090B02024FF000417E
:105320004FF00000A1F5002170BD1946104601287C
:1053300051EB010418BFD4F5001484BF002001F024
:10534000004170BD0808A0F500114FEA3101704717
:1053500090EA010F48BF81F0004100F16881421AD4
:105360003CBF801A89184FEAD0524FF07F4C1CEA9C
:10537000410FA2EBD15318BF9CEA026F00F03B80B3
:105380004FF0004C4CEA00204CEA012121FA03FCCA
:1053900010EB0C0C1ED202F1FF325FEA1C2040EB36
:1053A000C25038BF70471CF07F0F4FEA400C18BF47
:1053B000BCF17F4F38BF7047C3F12003994008BF4D
:1053C00020F00100BCF17F4F38BF7047A0F1C04012
:1053D00000F021B94FEA3C00000A40EBC25028BF60
:1053E0001CF0FF0F4FEA400CE6D018BFBCF17F4F16
:1053F00038BF7047EAE79CEA026F05D010EA5C0FFD
:1054000008BF00F00040704710B500F0BEF800BFC4
:1054100064FBBE3E014800F0BEB900BF0000C07F83
:1054200041000B0ED3F19E0208D950F400034FEA5D
:10543000032323FA02F048BF4042704710B500F042
:10544000A4F800BF49922480002070476FF000420A
:1054500082EA20007047000010F0004148BF40423F
:10546000B0FA80F310FA03F2C3F19D030BD051EAB6
:10547000C35101EB1220530638BF704700F1010001
:1054800008BF20F0010070474FF47F0C1CEAD012D7
:105490001EBF1CEAD11392EA0C0F93EA0C0F00F026
:1054A000478090EA010F48BF42F480724FF0004CF1
:1054B0004CEA00204CEA012102EB0302A0FB01139D
:1054C000A2F50002002918BF43F001035B0028BFCA
:1054D0004FEA330342EB22425FEA132C4CEBC250FB
:1054E0002EBFBCEB436FB2F57C0F70474FEA036CE5
:1054F000BCF1004F08BF20F00100B2F57C0F38BFAF
:1055000070470BD582F0FF0212F5803FC8BF70478D
:1055100000F1C040D8BF00F00040704700F5000C1B
:105520005FEA4C0C48BF7047B0F1C04000F073B860
:1055300090EA010F0CEAD11348BF42F48072624531
:1055400038BF634504D280EA010000F00040704794
:1055500010B500F01AF800BF8900013E00F007B84E
:1055600000F009B85FEA410C5FEA1C6C08D080EAE1
:10557000010000F050B85FEA400C5FEA1C6CF6D105
:105580004FF00040A0F5800070470EF1020E2EF0A3
:10559000030E5EF8044B244204D44FEA4102B2F1F8
:1055A0007F4F11D84FEA4003B3F17F4F0CD80ED193
:1055B0004FEAD07CB2F17F4F0CEB4C0C0CF1020C9B
:1055C00008BF4CEBD17C04E04FF0080C01E04FEA3F
:1055D000D17C0CEB4C0324FA03F404F00704B4F17F
:1055E000040C06D20EEB840CBDE810404CF0010C0C
:1055F0006047DFE80CF0070802024FF00040A0F51A
:10560000800010BD0846420018BFD2F1807288BFEA
:1056100000F0004010BDFF2141EAD050C0057047A6
:1056200090EA010F48BF81F000413FF598AE421A61
:1056300004D882F00042A0EB020011444FEAD0529D
:105640004FF07F4C1CEA410FA2EBD15318BF9CEAEC
:10565000026F4AD04FF0004C4CEA00204CEA012186
:1056600021FA03FCB0EB0C0C0FD412F0FE0F36D075
:105670005FEA4C001DD5001240EBC25038BF7047A6
:105680001CF03F0F18BF70470BE0A2F101025FEA68
:105690001C2040EBC25038BF70471CF07F0F18BF72
:1056A0007047C3F12003994014BF401E20F0010051
:1056B000704780084FEA122308BF7047B0FA80FC99
:1056C000A2EB0C02CCF1280C60FA0CF093EA122F3A
:1056D00004BF00EBC25070474FEAC3707047130A13
:1056E0005FEADC1008BF7047F6E79CEA026F04D05F
:1056F00010EA5C0F08BF0020704710B5FFF745FFA8
:1057000040DFF63E81F0004070470000C2154FEACE
:10571000002318BF43F0004300F11080D2F1BE0215
:1057200040F2288023FA02F1B2F1200C2EBF23FAB6
:105730000CF0C2F1200C03FA0CF07047B0F15F4F8F
:1057400000F2188012F0FF0208BF23F00043C2F1FC
:10575000BE0223FA02F1B2F1200C2EBF23FA0CF0A4
:10576000C2F1200C03FA0CF04042C1F1000138BF35
:10577000491E704710B5FFF708FF00BF922449800B
:1057800000204FF0000170476FEAE07080F00041A8
:105790007047FBF7DCB90CF00F03092B08BF08209A
:1057A00000F051800A2B0BD0082B18BF704708BFA0
:1057B0001CF0400F0AD04FF000004FF0000170477E
:1057C0001CF0400F18BF4FF0004070471CF0100F46
:1057D00008D020F0704300F07F4242EAD3014FEA44
:1057E0004370704700F0604021F07F4242EA0002BF
:1057F00001F07F4040EA727070474FF0FF0212EAFA
:10580000D0521CBF92F0FF038B42C2BFD14200EBCB
:10581000C1507047002A0AD0002B0BD0002900F09D
:105820000040A4BF40F0FE4040F40000704700F08C
:105830000040704743024FF00B0C18BF4CF0806CD7
:105840007FF4E8AD70471CF4801F11D01CF4E02FEA
:1058500003D06FEACC31490070474FF04050EFF36E
:10586000008222F0704242EA000282F30088704710
:105870004FF0000070470000010408100102040806
:105880004600000064000000C80000009001000015
:105890002C00000043000000590000006F000000D1
:1058A000850000009B000000B2000000C80000005E
:1058B0000800000014000000280000005000000054
:1058C000A000000040010000800200000005000070
:1058D00011000000160000001C0000002100000064
:1058E000270000002C0000003200000038000000FB
:1058F0003D00000043000000480000004E00000092
:1059000053000000590000005E0000006400000029
:1059100000070E091C1B1215383F363124232A2D8F
:105920000008014000000040002401400100010087
:105930000008014000000040002401400200020174
:105940000008014000000040002401400400030260
:10595000000801400000004000240140080004034A
:105960000008014000000000002401401000000475
:105970000008014000000000002401402000000554
:1059800000080140000400400024014040000106DE
:10599000000801400004004000240140800002078C
:1059A00000080140002C014000000000000101FF40
:1059B00000080140002C014000000000000202FF2E
:1059C00000080140002C014000000000000403FF1B
:1059D00000080140002C014000000000000804FF06
:1059E000000801400000000000000000001000FF5F
:1059F000000801400000000000000000002000FF3F
:105A0000000801400000000000000000004000FF0E
:105A1000000801400000000000000000008000FFBE
:105A2000000C014000040040002401400100030874
:105A3000000C014000040040002401400200040961
:105A4000000C01400000000000000000040000FF06
:105A5000000C01400000000000000000080000FFF2
:105A6000000C01400000000000000000100000FFDA
:105A7000000C01400000000000000000200000FFBA
:105A8000000C01400008004000000000400001FF41
:105A9000000C01400008004000000000800002FFF0
:105AA000000C01400008004000000000000103FF5E
:105AB000000C01400008004000000000000204FF4C
:105AC000000C01400000000000000000000400FF86
:105AD000000C01400000000000000000000800FF72
