:020000040800F2
:10000000200B002099010008A1010008A3010008AD
:10001000A5010008A7010008A901000800000000D0
:10002000000000000000000000000000AB0100081C
:10003000AD01000800000000AF0100080D1000082D
:10004000B3010008B3010008B3010008B3010008C0
:10005000B3010008B30100084108000805090008C1
:10006000290900084D09000871090008B3010008BA
:10007000B3010008B3010008B3010008B301000890
:10008000B3010008B3010008B3010008B301000880
:10009000B3010008B3010008B30100089509000886
:1000A000B3010008D1100008B3010008B301000833
:1000B000011100082D1100085D110008B3010008AE
:1000C000B3010008B3010008B3010008B301000840
:1000D000B301000805170008111700081D170008D4
:1000E00065080008B3010008B301000800F002F839
:1000F00000F043F80AA090E8000C82448344AAF17F
:100100000107DA4501D100F038F8AFF2090EBAE87C
:100110000F0013F0010F18BFFB1A43F0010318473B
:10012000683F0000883F0000103A24BF78C878C1BB
:10013000FAD8520724BF30C830C144BF04680C60ED
:10014000704700000023002400250026103A28BF35
:1001500078C1FBD8520728BF30C148BF0B60704739
:100160001FB59DE8030000F02DF900F0F9F81FBD60
:1001700010B5002000F084F910BD00F015FA11460A
:10018000FFF7EEFF03F09EF800F038FA03B4FFF734
:10019000EFFF03BC00F002FA094880470948004716
:1001A000FEE7FEE7FEE7FEE7FEE7FEE7FEE7FEE727
:1001B000FEE7FEE704480549054A064B7047000084
:1001C00081100008ED00000820050020200B002011
:1001D000200700202007002070B50446051F00F00E
:1001E000D1F80068002C14BF446870BD002C18BF03
:1001F000AC423CBF20466468F8D301680A18AA42A2
:1002000018BF456003D12A6805461144016028687B
:100210004119A1421CBF6C6070BD616869602168B2
:100220000844286070BD53EA020C00F069802DE993
:10023000F04B4FF00006002B1FBFB3FA83F503FA13
:1002400005F424FA05F65E4012BF1643B2FA82F5B1
:1002500002FA05F4C5F120051EBF22FA05FC44EAA6
:100260000C04203556EA044C4FEA144418BF641CB1
:100270004FF000084FF00009904271EB030C39D3A6
:10028000002919BFB1FA81F701FA07F6B0FA80F731
:1002900000FA07F6C7F120071EBF20FA07FC46EA5E
:1002A0000C062037B6FBF4FCA7EB0507103F07F060
:1002B0001F0BCBF120060CFA0BFB2CFA06F644BF01
:1002C000B3460026202FA4BF5E464FF0000B5BEA2A
:1002D000060C08BF4FF0010B19EB0B09ABFB027CBE
:1002E00048EB0608C01B06FB02CC0BFB03CC71EBF2
:1002F0000C01C1E70B46024641464846BDE8F08B7B
:1003000013B54FF000004FF00001AFF30080BDE8DF
:100310001C4070472DE9F041074615460E46102057
:1003200000F07FF804000AD06760C4E9026500F0BD
:100330002DF80168216004600020BDE8F0810120F3
:10034000FBE7421E12F8013F002BFBD111F8013BE5
:10035000002B02F8013BF9D1704770477047704796
:1003600070B5064C7C44064D7D4403E02068204473
:100370008047241DAC42F9D170BD0000403D000013
:10038000503D000000487047C404002000487047FA
:10039000F4040020704770477047704738B5044632
:1003A0000A4600206946AFF30080002808BF38BD28
:1003B00002460099204600F094F8012038BD012043
:1003C00000F0AEB8F8B5AFF30080054600200C464B
:1003D000102000BF0646A819A0420DD93246694632
:1003E0000020AFF30080070008BF00F099F80098E4
:1003F000A04218BF0546C419FFF7C4FF05600746B1
:10040000F01D20F007004619284600F063F8B442BA
:1004100008BFF8BDA21B31463868BDE8F84000F0BF
:1004200060B870B50646FFF7ADFF056806F10B0032
:1004300020F00704B4429CBF002070BD2B466A68C0
:10044000BAB11068A04210D304F1080188423CBF41
:100450005068586007D35168101941601168091B32
:10046000016058601460101D70BD13465268002A68
:10047000E7D121462846FFF791FF0028DED170BD65
:100480002DE9F0410646FFF781FF8046454613E01F
:1004900016B1E068B0420ED120682860D4E90101AD
:1004A000D8F8007088472046FFF796FED8F800007D
:1004B000B842EBD100E025462C68002CE8D1BDE81D
:1004C000F081000000487047BC04002000487047DD
:1004D000F004002000210160C0E9011070471020E5
:1004E0007047034640688C46002818BF88423CBFCE
:1004F00003464068F8D318681844884207D00CF1C6
:10050000030020F00700001D411A521A0146081D81
:100510000A60FFF761BE002801D000F03FB87047C5
:1005200010B500F099F8BDE81040FFF7F4BFAFF345
:10053000008010B500F00DF8016919B100220261C8
:10054000884701E08068804700F061F810B500F04E
:100550005EF870B500F04EF804680546A4B9202096
:10056000FFF75FFF040011D0094900202C60C4E9A7
:1005700000010849A1602073206160610649A06103
:1005800009B100F091F8E061204670BD00F03FF83D
:10059000000000004D05000800000000014918207F
:1005A000ABBEFEE7260002007546FFF78BFFAE46A6
:1005B00005006946534620F00700854618B020B56F
:1005C000FFF7F8FDBDE820404FF000064FF00007B0
:1005D0004FF000084FF0000B21F00701AC46ACE8EB
:1005E000C009ACE8C009ACE8C009ACE8C0098D4658
:1005F0007047000000487047F804002010B504461A
:10060000AFF300802046BDE81040FFF7BFBD10B536
:10061000002000F06FF8FFF7ABFDBDE810400120AF
:10062000FFF7BCBF70B505460C460A2000E06D1C04
:1006300000F058F835B128780028F8D102E0641CA1
:1006400000F050F814B120780028F8D1BDE87040CF
:100650000A2000F047B8000010B5012805D000219D
:1006600003A0FFF7DFFF012010BD09A1F8E700009C
:1006700053494752544D454D3A204F7574206F668B
:100680002068656170206D656D6F727900000000F3
:100690003A2048656170206D656D6F727920636FD7
:1006A000727275707465640010B58820FFF7B9FE2A
:1006B000002801D00021017010BD802902D808B1A6
:1006C000017809B100207047012100F8081B70472C
:1006D00018B100F10802914201D0002070470021BA
:1006E0000170704708B569468DF800000320ABBE65
:1006F00008BD704710B500F005F8BDE81040FFF7E1
:100700000ABF000010B5002102A0FFF78BFF0120F7
:1007100010BD0000534947414252543A2041626E95
:100720006F726D616C207465726D696E6174696F52
:100730006E00000070B5244D0446244E687840B920
:100740000020FF213154401CC0B21228FAD30120EE
:10075000687024B3012C22D0022C20D0032C1ED090
:10076000042C1CD0052C1AD0062C18D0072C16D01F
:10077000082C14D0092C12D00A2C10D00B2C0ED01F
:100780000C2C0CD00D2C0AD00E2C08D00F2C06D01F
:10079000102C04D0112C02D04FF0FF3070BD204639
:1007A00000F016F8401C02D06FF0010070BD2878F0
:1007B000122802D36FF0020070BD3454401CC0B246
:1007C0002870401E70BD00000C0000202404002092
:1007D000094910B502460020064B097804E01C5C6C
:1007E000944205D0401CC0B28842F8D34FF0FF308D
:1007F00010BD0000240400200C00002070B500F0A3
:100800000DFC0E484FF47A714FF0FF350068B0FBD5
:10081000F1F1491EB1F1807F0AD24FF0E02461610D
:100820000F21284602F088FC0020A06107202061EB
:100830002846BDE87040002102F07EBC8C000020FC
:1008400010B5012000F00CF9002808D00448006819
:1008500000B18047BDE81040012000F0D9B810BDBC
:100860005C04002070B54FF48065284600F0F8F86D
:10087000234C28B1A16A01B18847284600F0C8F886
:100880004FF40065284600F0EBF828B1E16A01B1A9
:100890008847284600F0BCF84FF48055284600F001
:1008A000DFF828B1216B01B18847284600F0B0F885
:1008B0004FF40055284600F0D3F828B1616B01B120
:1008C0008847284600F0A4F84FF48045284600F0F9
:1008D000C7F828B1A16B01B18847284600F098F805
:1008E0004FF40045284600F0BBF8002807D0E16B24
:1008F00001B188472846BDE8704000F089B870BD56
:100900005C04002010B5022000F0AAF8002808D0EE
:100910000448406800B18047BDE81040022000F064
:1009200077B810BD5C04002010B5042000F098F8E2
:10093000002808D00448806800B18047BDE8104016
:10094000042000F065B810BD5C04002010B508203C
:1009500000F086F8002808D00448C06800B180473D
:10096000BDE81040082000F053B810BD5C04002022
:1009700010B5102000F074F8002808D00448006971
:1009800000B18047BDE81040102000F041B810BD14
:100990005C04002070B5202000F062F81B4C28B1E8
:1009A000606900B18047202000F032F8402000F05C
:1009B00057F828B1A06900B18047402000F028F81E
:1009C000802000F04DF828B1E06900B18047802018
:1009D00000F01EF84FF48075284600F041F828B169
:1009E000216A01B18847284600F012F84FF40075DB
:1009F000284600F035F8002807D0616A01B1884721
:100A00002846BDE8704000F003B870BD5C040020CB
:100A100001490860704700001404014010B500F05F
:100A2000B7F8042810D8052817D2DFE800F003052E
:100A300007090B00062410E007240EE008240CE050
:100A400009240AE00A2408E0411F042901D81724D8
:100A500003E00A38052800D82824204610BD0000ED
:100A6000064A014600201268044B0A4014331B68F2
:100A70000B4202D0002A00D0012070470004014040
:100A800030B51A498379026853B30B6893430B60FE
:100A90000A1D13680468A343136002790A441368AB
:100AA000046823431360114A083213680468A3439F
:100AB0001360131D1C680568AC431C604479102C3E
:100AC00005D021440A68006802430A6030BD1168FD
:100AD000046821431160196800680143196030BD42
:100AE0000079084401689143016030BD0004014071
:100AF0002DE9FE431E46DDF8289017460D46804638
:100B000070282DD200F044F804460F2828D8154844
:100B1000012140F82450084600F0D0F9404600F08A
:100B200049F8214600F020F8012505FA04F000906C
:100B300000208DF804008DF805708DF80650684689
:100B4000FFF79EFF4046FFF769FF8DF808008DF81C
:100B500009608DF80A908DF80B5002A800F03AF960
:100B6000BDE8FE835C04002010B58A0721F0030471
:100B70000649130F21440F228C689A4094438C60DD
:100B80008A68984002438A6010BD0000000001405E
:100B9000024901EB0010808900F002B854390008C6
:100BA000002102E04008491C89B20128FAD8C8B2E5
:100BB00070470000144901EB001014490068884296
:100BC00001D1002070471249884201D101207047AD
:100BD0001049884201D1022070470F49884201D153
:100BE000032070470D49884201D1042070470C4909
:100BF000884201D1052070470A49884201D1062068
:100C00007047FF2070470000543900080008014079
:100C1000000C014000100140001401400018014088
:100C2000001C014000200140F0B5CA78002502F008
:100C30000F03D20601D58A7813430A784FF00F0EBE
:100C400012F0FF0F4FF001021CD004680F8802FA67
:100C500005F63740B74211D14FEA850C0EFA0CF772
:100C600024EA070703FA0CF43C43CF78282F02D07C
:100C7000482F02D002E0466100E006616D1C082D9D
:100C8000E4D304600C88FF2C1ED944685FF0000692
:100C900006F1080702FA07F50F882F40AF420FD17F
:100CA0004FEA860C0EFA0CF7BC4303FA0CF73C43F0
:100CB000CF78282F00D14561CF78482F00D105612A
:100CC000761C082EE4D34460F0BD000010B501216D
:100CD000084600F0F3F8BDE810400121014800F09B
:100CE00003B8000000023000F0B5144C002801DA0F
:100CF000E36900E06368420D120185B2C0F3015759
:100D00009540C0F30346032F05D0C2020AD5032243
:100D1000B240934307E023F07062636823F070638E
:100D2000636002E0AB4343F0706201B12A430028E4
:100D300001DAE261F0BD6260F0BD00000000014038
:100D4000F8B504461C481E4615460F46844201D19C
:100D500004201CE01948844201D1082017E01848FB
:100D6000844201D1102012E01648844201D1202093
:100D70000DE01548844201D1402008E01348844228
:100D800001D1802003E01248844213D180151C2D2C
:100D900001D0182D01D140F00100012100F08EF8A2
:100DA000ADF800708DF803508DF80260694620465A
:100DB000FFF73AFFF8BD000000080140000C0140B9
:100DC000001001400014014000180140001C0140C7
:100DD0000020014070B50F23C47801780122F4B1DE
:100DE000144C2468457804F4E064C4F5E064240AF3
:100DF000C4F10406E3408478B5401C402C4301F163
:100E0000E021230181F80034007800F01F018A40BE
:100E10004009800000F1E020C0F8002170BD01F021
:100E20001F0082404809800000F1E020C0F88021C6
:100E300070BD00000CED00E0024908430249086063
:100E4000704700000000FA050CED00E070B5702856
:100E50000CD2124B03EB0014A37B3BB131B12AB18E
:100E60000F4B01FB02F51B689D4201D9002070BDAC
:100E70000D46B3FBF5F1B1FBF2F6182102F036FA9C
:100E80000021606800F085F9761E6D1EA37BB2B26A
:100E9000A9B2606800F0FCFAA07B70BD543900086C
:100EA0008C000020044A0029D16901D0014300E0F0
:100EB0008143D1617047000000100240044A0029BC
:100EC000916901D0014300E08143916170470000C6
:100ED0000010024030B51F494A6812F00C031E4A48
:100EE00003D0042B01D0082B21D002604A680F23C5
:100EF0001A4C03EA1212A35C0268DA4042604B68A3
:100F0000072505EA1323E35C22FA03F383604B68A9
:100F100005EAD323E35CDA40C2604968032303EAAD
:100F20009131231F595CB2FBF1F1016130BD4A6878
:100F30004B6802F470124FF0020413F4803F04EB8C
:100F4000924202D04B689B0301D5054B00E0024B57
:100F50005A43CAE70010024000127A00A4000020A1
:100F600000093D000CB5002126480191009102685E
:100F700042F4803202604FF4A063026802F400324F
:100F80000092019A521C0192009A12B9019A9A4257
:100F9000F3D10268920333D5012100911A490A68FE
:100FA00042F010020A600A6822F003020A600A682E
:100FB00042F002020A604168416041684160416854
:100FC00041F480614160416821F47C1141604168D5
:100FD00041F4E8114160016841F0807101600168ED
:100FE0008901FCD5416821F003014160416841F06D
:100FF000020141604168C1F381010229FAD10CBDAF
:1010000000910CBD0010024000200240024801681F
:10101000491C01607047000010000020144910B501
:101020004868144A10F00C03134803D0042B01D075
:10103000082B0AD0026049680F4AC1F30311121D40
:10104000515C0268CA40026010BD4A684B6802F4F5
:1010500070124FF0020413F4803F04EB924202D06E
:101060004B689B0301D5054B00E0024B5A43E1E777
:101070000010024000127A008C00002000093D00A0
:101080000F4810B5016841F00101016041680D4A47
:101090001140416001680C4A11400160016821F46F
:1010A00080210160416821F4FE0141604FF41F017D
:1010B0008160FFF757FF05494FF00060086010BDE1
:1010C000001002400000FFF8FFFFF6FE08ED00E010
:1010D00010B5094C0121204600F070F8002809D015
:1010E0000648016801B188472046BDE8104001214B
:1010F00000F04CB810BD0000002C01409C04002002
:1011000010B501218C07204600F058F8002809D0BE
:101110000548416801B188472046BDE810400121DB
:1011200000F034B810BD00009C04002010B5094C3C
:101130000121204600F042F8002809D006488168C5
:1011400001B188472046BDE81040012100F01EB8DB
:1011500010BD0000000400409C04002010B5094CA4
:101160000121204600F02AF8002809D00648C1686D
:1011700001B188472046BDE81040012100F006B8C3
:1011800010BD0000000800409C040020C9430182FB
:1011900070470029018802D041F0010101E021F0EF
:1011A000010101807047002930F8441F02D041F44A
:1011B000004101E0C1F30E010180704702460020AA
:1011C000138A92890B4202EA010202D0002A00D05F
:1011D0000120704730B5028C22F001020284028C9B
:1011E0008388048B22F0020224F073050C882C43C0
:1011F0000D8915434A882A43114DA8420BD0114D41
:10120000A84208D0104DA84205D0104DA84202D0E7
:101210000F4DA8420DD122F008054A8923F44073EE
:101220002A4322F004058A882A438D891D43CB89ED
:101230002B4383800483C9888186028430BD0000EB
:10124000002C0140003401400040014000440140B6
:1012500000480140028B22F008020A4302837047D3
:1012600070B5028C22F010020284028C8488038BF9
:101270000D8823F4E6464FF6FF7303EA0525354350
:101280000E8922F0200203EA061616434A8803EA72
:1012900002123243104EB04202D0104EB04215D16D
:1012A00022F080064A8924F4406403EA02123243A1
:1012B00022F040068A8803EA021232438E8903EA4A
:1012C00086062643CC8903EA84043443848005835C
:1012D000C9880187028470BD002C014000340140A0
:1012E000028B4FF6FF7322F4006203EA01211143DF
:1012F0000183704770B5028C22F480720284028CE4
:101300008488838B0D8823F073031D4322F40073BC
:101310000E894FF6FF7202EA06261E434B8802EA48
:1013200003233343104EB04202D0104EB04215D1C9
:1013300023F400664B8924F4405402EA0323334328
:1013400023F480668B8802EA032333438E8902EA02
:1013500006162643CC8902EA04143443848085832C
:10136000C9888187038470BD002C0140003401408E
:10137000828B22F008020A438283704770B5028C88
:1013800022F480520284048C8288838B0D8823F49B
:10139000E6464FF6FF7303EA0525354324F400566D
:1013A0000C8903EA043434434E8803EA06362643A4
:1013B000094CA04202D0094CA04205D122F480443D
:1013C0008A8903EA8212224382808583C988A0F831
:1013D0004010068470BD0000002C01400034014024
:1013E000828B4FF6FF7322F4006203EA012111435E
:1013F0008183704730B502881B4B1C4C98420DD03E
:10140000A0420BD0B0F1804F08D0194DA84205D0B2
:10141000184DA84202D0184DA84203D122F0700501
:101420004A882A43154DA84206D0154DA84203D03C
:1014300022F44075CA882A4302808A8882850A88F5
:10144000028598420AD0A04208D00E4A904205D0A8
:101450000D4A904202D00D4A904201D1097A01868C
:101460000121818230BD0000002C01400034014088
:101470000004004000080040000C00400010004044
:101480000014004000400140004401400048014079
:101490002DE9F0434C4E4D4F87B0994690460D468E
:1014A0000446B0422ED0B4F1804F2BD0484884423D
:1014B00028D04848844225D04748844222D0474813
:1014C00084421FD0464884421CD0BC421AD04548B2
:1014D000844217D04448844214D04448844211D0F6
:1014E000434884420ED0434884420BD04248844251
:1014F00008D04248844205D04148844202D0414845
:1015000084425ED10121204600F07EF8ADF81450EF
:101510000025ADF81080ADF81650ADF8125004A9B2
:101520002046FFF767FF7020ADF800000120ADF8FE
:1015300002000220ADF80800B44201D0BC4205D13F
:10154000ADF80C50ADF80E50ADF804504846B9F166
:10155000010F07D002280ED0032815D0B9F1040FCF
:1015600023D11AE069462046FFF734FE08212046C1
:10157000FFF770FE19E069462046FFF771FE08216B
:101580002046FFF7ADFE10E069462046FFF7B2FEA9
:1015900008212046FFF7ECFE07E069462046FFF7EA
:1015A000EDFE08212046FFF71BFF01212046FFF733
:1015B000F0FDB44201D0BC4203D101212046FFF727
:1015C000F2FD07B0BDE8F083002C0140003401407B
:1015D0000004004000080040000C004000100040E3
:1015E00000140040004C01400050014000540140F4
:1015F00000180040001C0040002000400040014056
:1016000000440140004801402E4A904201D1C014DC
:1016100055E0B0F1804F04D02B4A904203D1022014
:101620003AE0012038E0294A904201D1042033E019
:10163000274A904201D108202EE0264A904201D14B
:10164000102029E0244A904201D1202024E0234A9E
:10165000904201D1401432E0214A904202D14FF42D
:1016600000202CE01F4A904202D14FF4801026E067
:101670001D4A904202D14FF4001020E01B4A9042D4
:1016800001D1402008E01A4A904201D1802003E0B5
:10169000184A904202D18015FFF704BC164A9042C6
:1016A00002D14FF480300AE0144A904202D14FF444
:1016B000003004E0124A904203D14FF48020FFF73B
:1016C000FDBB7047002C01400004004000080040B2
:1016D000000C0040001000400014004000340140A5
:1016E000004C0140005001400054014000180040EF
:1016F000001C004000200040004001400044014028
:1017000000480140014800F051BA0000A401002047
:10171000014800F04BBA000040020020014800F0F0
:1017200045BA0000DC0200200A0A01219140C943A9
:10173000018070470029818902D041F4005101E005
:1017400021F40051818170470246002012880A422C
:1017500000D00120704730B501F01F0201240025A0
:10176000C1F3421304FA02F2012B0FD0022B0FD067
:10177000838A4FEA11210088134204FA01F400EA37
:10178000040001D000B10125284630BD8389F0E76F
:10179000038AEEE710B5C1F3421301F01F040121E3
:1017A000A140012B07D0022B07D01430002A026879
:1017B00005D00A4304E00C30F8E71030F6E78A431E
:1017C000026010BD30B50446008A85B00D464CF667
:1017D000FF710840E98801432182A1894EF6F31088
:1017E0000140A8882A8910436A890A431043A081CE
:1017F000A08A4FF6FF410840A9890143A1826846AB
:10180000FFF768FB1948844201D1039800E0029871
:10181000A189090400EBC00101EB0010296801D582
:10182000490000E08900B0FBF1F06422B0FBF2F166
:1018300009010B096FF018056B4300EB8300A389C6
:101840001D044FF0320306D503EBC000B0FBF2F0ED
:1018500000F0070005E003EB0010B0FBF2F000F031
:101860000F000843208105B030BD00000038014062
:101870008088C0F308007047C1F308018180704779
:1018800010B50421152001F031FDBDE810400249DA
:10189000024800F00DB90000051900087801002089
:1018A000044850F8801FC968828900685140C160AF
:1018B0007047000054390008014801F07FBB000068
:1018C000B800002010B5152001F0DCFC28B1002183
:1018D000BDE81040024800F0EDB80121F8E7000033
:1018E000780100204840002102064FEA40604FEA9C
:1018F000106001D580F00700491CC9B20829F3D354
:1019000070470000114A10B590421DD1012909D03D
:10191000022914D0072917D10021BDE81040082062
:1019200001F0C0BC01220221094800F035FA094843
:1019300000F09AFFBDE81040064800F037BEBDE851
:101940001040044800F072BF10BD00007801002074
:1019500000000020B800002010B501F0C1FC0146D5
:10196000BDE81040014800F023BA0000000000204C
:1019700038B51021182001F0B9FC0121182001F020
:1019800091FC4FF4E131114800F034F9FFF778FF92
:1019900000F070F800F024F801240A230C4A00211A
:1019A0000C48009400F0DAF9002000904FF47A73AC
:1019B000094A0221074800F0D1F9FA23074A012118
:1019C0000448009400F0CAF938BD0000A4010020CA
:1019D000C518000800000020A1180008B918000868
:1019E00038B515220F21224801F00AFA2D200246AF
:1019F000009000236FF013011D4800F085FF0521C2
:101A00001B4800F0A0FFC82243F2B061184801F063
:101A100073F84FF4FA54C8222146154801F088F9AA
:101A20004FF4A0722146124801F084F902224FF4CB
:101A30002F610F4801F022F9022241F204010C4803
:101A400001F0C2F8142340F6E4420021084800F0F7
:101A50007CFF6421064800F081FF054800F050FF3C
:101A6000034800F001FFBDE83840014800F09EBD8A
:101A7000B80000201021082001F038BC70B50546E0
:101A8000084900208024087034EA050008D006A127
:101A90000448FEF756FC6410002CF5DC014870BDCC
:101AA00002A1F5E79801002030000000310000009D
:101AB000C161704770B50446C0690D46002869D001
:101AC000607E0126D0B101F00BFC2169401AE1884B
:101AD000884229D3E078A84226D002202071A07E37
:101AE000C0B101F0FDFBE168401A218988423CD376
:101AF00001F0F6FBE0600321E26934E0E078A842FF
:101B000048D066762670267101F0EAFB206101213B
:101B1000E26924E0E26902212046904701F0E0FBFF
:101B2000E060A676A67020E0607E002832D0E078E3
:101B3000A8421DD100206076A0766670207101F069
:101B4000CFFB606101F0CCFB2169401AE18888423B
:101B500003D2E269062120469047E269042120462B
:101B60009047E269052120469047607E002811D009
:101B700001F0B6FB6169401AC8280BD2E078A84290
:101B800008D0207E401C20762046E269BDE87040E7
:101B90000721104770BDC170C2800381002101611F
:101BA0004161C16041768176C161704770B504467C
:101BB00040F2255500692946FFF7CDFD002818D0D1
:101BC0002069FFF755FEC2B2208B618B401C00F0EC
:101BD0007F00814204D0238B04F11C015A542083DE
:101BE000606900B1804729462069BDE87040FFF771
:101BF0009BBD70BD0022AFF3008008B503230093A6
:101C0000012300F001F808BD2DE9FF4F90463F4A3F
:101C10000169DFF8FCA087B09B4606464FF4806957
:101C200091420AD1012144F20400FFF747F94FF431
:101C300000704D46544625271FE0364A91420CD18C
:101C400001214804FFF72EF901210420FFF736F99E
:101C500004200825544626270FE02F4A91420CD134
:101C600001218804FFF71EF901210820FFF726F95A
:101C70002A4C48464FF400652727ADF81000032092
:101C80008DF8120018208DF8130004A92046FEF7E5
:101C9000CBFFADF8105004208DF8130004A92046A6
:101CA000FEF7C2FF8DF814708DF815B014988DF8FA
:101CB000160001208DF8170005A8FFF78BF808988B
:101CC000009008F47040ADF8040008F47060ADF8BE
:101CD000080008F0F0000002ADF806000020ADF8A2
:101CE0000C000C20ADF80A0069463069FFF76AFD68
:101CF000012240F225513069FFF74CFD0121306986
:101D0000FFF718FD0BB0BDE8F08F00000038014070
:101D1000000801400044004000480040000C014021
:101D200070B50D46044680212069FFF70DFD00289F
:101D3000F9D029462069FFF79FFD012070BD000002
:101D400000224FF47A73C0E90123034B0360C0E91A
:101D500004124283028370475C400008F0B501EB37
:101D600081040426056806EB8406059F55F806C025
:101D7000BCF1000F0ED190F804C08C450AD9AA51CD
:101D8000016801F824700068082101EB84014350C8
:101D90000120F0BD0020F0BD03798B4206D9006818
:101DA00001EB810100F821200120704700207047DD
:101DB0002DE9F04700240426894605460C2720E03B
:101DC00004EB8401286806EB81028358BBB110F84C
:101DD0002130A3B107EB810350F80380A9EB080C75
:101DE0004FF0080808EB810141588C4507D340F8B3
:101DF00003902868805880476879002804D1641CC3
:101E0000E4B22879A042DBD8BDE8F08710B501EB39
:101E100081010424036804EB810400221A51036841
:101E2000082404EB810403F8212003681A51006898
:101E30000C2303EB8101425010BD70B50446427182
:101E400000680D4608B101F05AF905EB85008000E5
:101E500001F059F920602571002505E0294620464A
:101E6000FFF7D4FF6D1CEDB22079A842F6D82046CA
:101E700070BD10B50446006808B101F040F9204675
:101E800010BD2DE9F04190B0002419468046169F00
:101E9000944626466D4652EA01000FD13021404655
:101EA00000F027F8012010B0BDE8F0813A46002389
:101EB0006046FEF7B8F92A558446641C5CEA0100C6
:101EC000F4D174B1281910F8010C0A2801D230306D
:101ED00000E03730C1B2404600F00BF80644641E03
:101EE000EFE73046DFE70268526810470268526841
:101EF000104702681268104708B5CB1700920A46CF
:101F000000F001F808BDF8B51546069E1C460746C8
:101F10008EB1002C07DA2D21FFF7EBFF20460024BD
:101F20006D4264EB0004F0B200902A462346384626
:101F3000FFF7A7FFF8BD3868D1B2026801B0384694
:101F4000BDE8F040104770B50C460646002505E098
:101F50003068641C0268304690476D1C2178002967
:101F6000F6D1284670BD70B50546FFF7BCFF0446A4
:101F7000284600F016F8204470BD70B50546FFF7FE
:101F8000B5FF0446284600F00CF8204470BD70B53B
:101F90000546FFF7B1FF0446284600F002F820444A
:101FA00070BD70B505460D21FFF7A3FF04460A2159
:101FB0002846FFF79EFF204470BD70B504460021FF
:101FC00000F0E1F80121204600F0F2F8012120465E
:101FD00000F0D9F894F8560001F054F930B100251A
:101FE0000021204600F0CFF8284670BD0125F7E714
:101FF00010B50446002100F0DBF80121204600F076
:10200000C2F82046BDE81040002100F0BCB870B511
:1020100006460025012100F0CBF8002401213046BE
:1020200000F0B1F896F8560001F02CF9C4F1070160
:1020300088402843C5B20021304600F0A4F8641C53
:10204000082CEBDB284670BD10B50446012100F0DA
:10205000AFF80121204600F096F82046BDE8104078
:10206000002100F090B82DE9F04100240E4607460B
:102070000125C4F1070105FA01F0304201D0012128
:1020800000E00021384600F093F80121384600F0C6
:102090007AF80021384600F076F8641C082CE8DB5A
:1020A000BDE8F08110B50446002004F8520F142159
:1020B000607004F8220C04F8210CE07801F016F9A5
:1020C00020791421523C01F011F90121204600F041
:1020D0005AF82046BDE81040012100F069B870B5FB
:1020E00004460020608120794006050EE088012822
:1020F00001D145F00105204600F076F8294620463A
:10210000FFF7B1FF2046FFF758FF20B1E088012814
:1021100019D000252AE0204600F057F8022070BDB3
:102120002046FFF774FF02466089E368411C618125
:102130001A54608921898842204602D2FFF758FF4D
:1021400001E0FFF781FF608921898842E8D310E030
:10215000E068415D2046FFF786FF2046FFF72DFF30
:1021600060B16089401C6D1C6081EDB22089A8427D
:10217000EED8204600F029F8002070BD204600F07F
:1021800024F8032070BD70B504460D4690F8540045
:1021900001F058F894F85500294601F083F8002D15
:1021A00005D094F8550001F06DF80028F9D070BD05
:1021B00070B504460D4614F8540F01F043F8A078AA
:1021C0002946BDE8704001F06DB810B50446002105
:1021D000FFF7EEFF01212046FFF7D5FF2046BDE8BF
:1021E00010400121FFF7E4BF10B504460021FFF7BE
:1021F000DFFF2046BDE810400021FFF7C4BF00000C
:1022000010B5044C046080F8543080F8551080F804
:10221000562010BD8040000803490160002180F86D
:10222000551080F8561070478040000870B504467D
:1022300061A16548FFF75AFE0A226348D4F8A4104A
:10224000FFF7A5FE207C18B9D4F8A40000287DD0A3
:102250000021204600F0F8F8C5B2280603D5012178
:10226000204600F00BF9A9064FF000006FD0217C4A
:10227000012901D1C4F8B40044F8A45F01F030F89A
:102280006169401A4FF47A71B0FBF1F12069A43C06
:10229000081A00D54042022801DDC4F8B410D4F871
:1022A000B40088427ED8A9060ED50321B0FBF1F216
:1022B00001FB120040B945A14348FFF754FE20221C
:1022C0000021204600F048F9E80610D5D4F8B410F3
:1022D0000A20B1FBF0F200FB121040B940A13A48CD
:1022E000FFF741FE10220021204600F035F92807B3
:1022F00014D5204600F0A0F994F85500D4F89010B9
:1023000004EB80008069884208DD3BA12E48FFF77E
:102310002AFE08220021204600F01EF9680714D585
:10232000204600F089F994F85400D4F88C1004EB9E
:1023300080008069884208DA34A12348FFF713FE41
:1023400004220021204600F007F901E032E02DE0F0
:10235000A8074FF03C060FD5D4F8B400B0FBF6F157
:1023600006FB110040B92EA11748FFF7FCFD022221
:102370000021204600F0F0F8E8070FD0D4F8B400B0
:10238000B0FBF6F106FB110040B92AA10E48FFF799
:10239000EAFD01220021204600F0DEF8D4F8B40066
:1023A000401C00E004E0C4F8B40001E0C4F8A4005C
:1023B000D4F8A40070BD0000636865636B5374615A
:1023C0007475733A20000000A4010020436C65611D
:1023D00072696E67205852206572726F7200000039
:1023E000436C656172696E6720416C65727420652B
:1023F00072726F7200000000436C656172696E67F3
:10240000205556206572726F72000000436C656142
:1024100072696E67204F56206572726F72000000FD
:10242000436C656172696E67205343442065727224
:102430006F720000436C656172696E67204F4344A0
:10244000206572726F72000070B50D4604464168D7
:10245000094800F01DFE2946074800F039FE0648ED
:1024600000F0FBFD01220448616800F0F3FDBDE8C7
:102470007040014800F00FBE780300202DE9F041C4
:102480000D46044623A12748FFF777FD002120468B
:10249000FFF7DAFFC6B20DB9300639D53321204631
:1024A000FFF7D2FF054632212046FFF7CDFF45EA70
:1024B000002007B2607A01F0EFF8054688463846FA
:1024C00001F0D3F8184A194B01F0FAF82A464346AE
:1024D00000F044FF01F09AF8206600250930132827
:1024E00000D22566A16F206E884203DD00F0F8FE61
:1024F000C4F8B000B00600D1257480220021204627
:1025000000F02AF8BDE8F04109A10648FFF735BD03
:10251000BDE8F08175706461746543757272656EB3
:1025200074000000A4010020E17A14AE47E12040CD
:1025300075706461746543757272656E743A207566
:102540007064617465642C20434320666C6167206D
:10255000636C6561726564002DE9F0410C460546C7
:1025600041680027D6B2104800F092FD21460E487F
:1025700000F0C2FD31460C4800F0BEFD287940064F
:10258000010E3846FFF7AEF92146FFF7ABF93146A9
:10259000FFF7A8F90146044800F0AEFDBDE8F041A0
:1025A000014800F05ABD00007803002010B5044631
:1025B00010A11448FFF7E1FC2046FFF737FE28B1D1
:1025C00011A11048FFF7D9FC002010BD0422002102
:1025D0002046FFF7C1FF05212046FFF735FF4322C4
:1025E00005212046FFF7B8FF0DA10648FFF7C5FCFF
:1025F000012010BD656E61626C6543686172676938
:102600006E670000A4010020656E61626C6543681E
:10261000617267696E673A206661696C6564000083
:10262000656E61626C654368617267696E673A20C6
:10263000656E61626C6564002DE9F84F044666A121
:102640006948FFF79AFC69A16748FFF796FC4FF0CD
:10265000000884F8548084F855800C2666F307053A
:102660006948616800F014FD3146674800F044FD98
:10267000654800F0F2FC00264FF47A794FF4FA7ABC
:102680004FE02078616801287BD002225E4800F08C
:10269000E1FC5D4800F0FFFC60F307055A4800F0DC
:1026A000FAFC60F3174500BFC5F3074005F03F0192
:1026B00040EA0121D4F89C0004EB8607484390FBD4
:1026C000F9F0D4F8A0100A220844B861711C4648F9
:1026D000FFF712FC4DA14448FFF708FC0A224248CC
:1026E000B969FFF709FC4048FFF75BFCB969514540
:1026F00001DD08F1010894F8540004EB80008069C2
:10270000814201DD84F8546094F85510B86904EBF7
:1027100081018969884203DA504501DD84F85560FA
:10272000761C6069B042ACDC2B212046FFF78CFEA2
:1027300005462A212046FFF787FED4F89C1045EA7B
:10274000002080B28900414391FBF9F1D4F8A02028
:1027500008FB0210C117E4E9160130A12248FFF777
:10276000C5FB0A200090D4E900231F48FFF7CBFBEC
:102770001D48FFF716FCBDE8F84F1CA11A48FFF7EB
:10278000FCBB0422204800F065FC1F4800F083FCDD
:1027900060F3070583461C4800F07DFC60F30F25BD
:1027A000194800F078FC60F317450746164800F01A
:1027B00072FC60F31F652079012101EB4000C1B27A
:1027C0000020FFF78FF85946FFF78CF839460020B4
:1027D000FFF788F868E70000757064617465566FEC
:1027E0006C74616765730000A40100202D2D2D2DF0
:1027F0002D2D2D2D2D2D2D2D2D2D2D2D2D2D2D2D09
:102800002D2D2D2D00000000780300202D2D636557
:102810006C6C566F6C74616765733A0042617456F4
:102820006F6C74616765733A0000000010B5044670
:1028300007A10C48FFF7A1FB05212046FFF704FE86
:1028400000F0410205212046FFF786FE012010BD61
:1028500064697361626C65414C4C4D6F736665745D
:1028600000000000A401002010B5044610A1154886
:10287000FFF783FB2046FFF7D9FC28B112A11148CE
:10288000FFF77BFB002010BD1B2200212046FFF735
:1028900063FE05212046FFF7D7FD42220521204691
:1028A000FFF75AFE0FA10748FFF767FB012010BD95
:1028B000656E61626C654469736368617267696EB5
:1028C00067000000A4010020656E61626C654469C8
:1028D000736368617267696E673A206661696C65E7
:1028E00064000000656E61626C65446973636861D1
:1028F0007267696E673A20656E61626C656400009C
:10290000012180F8A810704710B501EB8101490042
:10291000029CC0F8801002EB82014900C0F88810C8
:1029200003EB8301490040F87C1F04EB840149005C
:10293000816010BD10B5044600F0D2FCC4F8B800A8
:102940000120207410BD41727047C1EB0111890054
:10295000C0F8AC1040F8942F03717047816770473E
:102960002DE9F04704464EA15348FFF706FB00F05F
:10297000B7FCD4F8B0104FF47A76401AB0FBF6F5F5
:10298000052160694FF0000890FBF1F0C7B2002DFF
:1029900005DAC4F8B08000F0A3FCB0FBF6F52046E1
:1029A000FFF744FC00285ED1D4F8AC00A8425ADC02
:1029B00094F85400D4F8941004EB800080698842A5
:1029C00051DD94F8551004EB81018969401A94F89F
:1029D0009810884247DD4FF00109484684F8A990D5
:1029E00000263CE094F85510002504EB810194F892
:1029F0009830D1F818C0284606EB8602111804EB6F
:102A000081018969A1EB0C0199420ADD09FA00F103
:102A10002943C9B215EA410F03D111EA450F00D18C
:102A20000D46401C0528E9DB24A12348FFF75EFA88
:102A30000A22711C2048FFF75FFA24A11E48FFF705
:102A400055FA2846FFF71AF801461B48FFF795FA92
:102A5000701CC1B22A462046FFF77EFD761CBE429E
:102A6000C0DBBDE8F08794F8A9000128F9D1002562
:102A70000FE01AA11048FFF739FA0A22691C0E4824
:102A8000FFF785FA681CC1B200222046FFF764FDFB
:102A90006D1CBD42EDDB404684F8A980E1E70000F3
:102AA00075706461746542616C616E63696E6753D1
:102AB0007769746368657300A401002053657474BA
:102AC000696E672043454C4C42414C00207265675B
:102AD000697374657220746F3A200000436C6561FD
:102AE00072696E6720526567697374657220434529
:102AF0004C4C42414C0000002DE9F0478946064607
:102B0000904626A12748FFF738FA04F0F80040F075
:102B10008005707A244F07244FF47A7100FB09F086
:102B200090FBF1F257F824309A420BDB64F3020574
:102B30001EA11C48FFF7DAF90A2221461948FFF7BF
:102B400026FA02E0641E002CEADC25F01804164880
:102B50000325103850F8252042450BDC65F3C404EA
:102B600016A11048FFF7C2F90A2229460D48FFF7BF
:102B70000EFA02E06D1E002DECDC224606213046E6
:102B8000FFF7EAFC04F007004FF47A7157F82000D1
:102B90004843717A90FBF1F0BDE8F0877365745398
:102BA00043440000A4010020D438000853434420CB
:102BB0007468726573686F6C643A200053434420F4
:102BC00064656C61793A20002DE9F0410C460646B7
:102BD000904623A12448FFF7D0F908213046C6F8D3
:102BE0008C40FFF731FCC5B2D6F8A0004FF47A71E3
:102BF000201A4843D6F89C1090FBF1F0C0F3071759
:102C00003A4609213046FFF7A7FC184825F0300561
:102C10000324025D42450BDC64F3051514A1124840
:102C2000FFF764F90A2221460F48FFF7B0F902E0E6
:102C3000641E002CEDDC2A4608213046FFF78CFC90
:102C40004FF4005056F89C1F40EA071048434FF4D9
:102C50007A7190FBF1F071680844BDE8F0810000E2
:102C60007365744F56500000A4010020C03800085E
:102C70004F565F44454C41593A2000002DE9F04140
:102C80000C460646904623A12448FFF776F9082112
:102C90003046C6F89040FFF7D7FBC5B2D6F8A00083
:102CA0004FF47A71201A4843D6F89C1090FBF1F04B
:102CB0000009401CC7B23A460A213046FFF74CFCD7
:102CC000174825F0C0050324025D42450BDC64F380
:102CD000871514A11148FFF709F90A2221460F4868
:102CE000FFF755F902E0641E002CEDDC2A460821AE
:102CF0003046FFF731FC4FF4805056F89C1F40EAF5
:102D0000071048434FF47A7190FBF1F07168084462
:102D1000BDE8F0817365745556500000A401002091
:102D2000BC38000855565F44454C41593A200000D4
:102D3000704700002DE9F04789460646904625A1D8
:102D40002648FFF71AF9707A04F0F005244F0F2493
:102D50004FF47A7100FB09F090FBF1F257F8243040
:102D60009A420BDB64F303051EA11C48FFF7BEF873
:102D70000A2221461948FFF70AF902E0641E002CD6
:102D8000EADC25F0700416480725203850F8252085
:102D900042450BDC65F3061416A11048FFF7A6F8B0
:102DA0000A2229460D48FFF7F2F802E06D1E002DB9
:102DB000ECDC224607213046FFF7CEFB04F00F0083
:102DC0004FF47A7157F820004843717A90FBF1F084
:102DD000BDE8F0877365744F43440000A4010020F0
:102DE000143900084F4344207468726573686F6C2F
:102DF000643A20004F43442064656C61793A2000B6
:102E000070B50D460446164600214348FFF74AF9BF
:102E10000020014605E000BF04EB8002401CC0B268
:102E2000916162698242F7DC1021304600F05EFA5F
:102E30000121304600F036FA052000F0F9F90421AE
:102E4000304600F053FA0A2000F0F2F933A13D4871
:102E5000FFF793F83CA13B48FFF748F80A223948AE
:102E60006168FFF794F83BA13648FFF73FF82178F7
:102E70000A223448FFF78BF8FF2200212046FFF793
:102E80006BFB182204212046FFF766FB35A12D4875
:102E9000FFF773F8402205212046FFF75DFB3AA1BA
:102EA0002848FFF76AF80421284600F01FFA39483D
:102EB000082239490460284600F0B2F95121204621
:102EC000FFF7C2FAC4F8A00034A11E48FFF70EF8BD
:102ED0000A221C48D4F8A010FFF759F859212046BF
:102EE000FFF7B2FAC0F3421550212046FFF7ACFAC3
:102EF00000F00C0045EA400000F26D1044F89C0F11
:102F00002AA11048FEF7F2FF0A220E482168FFF7B7
:102F10003EF8002070BD0000780300204164647218
:102F200065737320616E6420435243206465746549
:102F30006374696F6E207375636365737366756C14
:102F400000000000A4010020416464726573733ABC
:102F50002000000043524320456E61626C65643A74
:102F600020000000746865726D6973746F722028A8
:102F700054454D505F53454C2920616E64204144B7
:102F800043206F6E0000000043435F454E206F6E8C
:102F90000000000008000020ED2F00086164634F6E
:102FA000666673657420726561643A0061646347A4
:102FB00061696E20726561643A00000010B50446D4
:102FC00007A10948FEF7D9FF00212046FFF756FA6E
:102FD0002046FFF731FB2046BDE81040FFF7C0BC9C
:102FE0007570646174650000A401002003480068E6
:102FF000002801D0FFF79EBC7047000008000020A9
:1030000001724260012904D0022904D00F214161DC
:1030100070470521FBE70A21F9E710B50446202A8D
:1030200000DD2022A1800120E080228194F8301070
:1030300004F110000844E0602068016820468847D9
:1030400094F83100A17A0844C0B284F8310000211C
:10305000E18010BDC9B2FFF7E0BF10B5044690F89B
:10306000530008B1012010BD206801682046884740
:10307000002104F8521F617010BD818090F8522029
:1030800000F132011144C16000210181C18070470B
:10309000C9B2FFF7F2BF10B590F8302090F8314078
:1030A0000021A24204D100F8301F4170002010BD61
:1030B000641E00F11003A24205D1D25C00F8301F5B
:1030C0004170104610BD511C80F83010D05C10BD0E
:1030D00010B590F85220202A0AD0134600F132048D
:1030E000521C80F8522019550189491C018110BDDC
:1030F000012180F8531010BDC9B2FFF7E9BF10B528
:10310000FDF76AF810BD10B500F002F810BD000020
:1031100010B5040007D1012405E0FDF7D7F90068D8
:1031200000B9044880472046FDF77BF90028F4D019
:1031300010BD00002F0500080907090E002804DB58
:1031400000F1E02080F80014704700F00F0000F15B
:10315000E02080F8141D7047C8234FF47A720021D4
:103160000148FEF718BD00007801002000B50749AE
:103170000748FEF7E5FD064806499C30FEF7E0FDEE
:10318000054906485DF804EBFEF7DABD003801405A
:10319000A40100200044004000480040DC02002060
:1031A0000448054901601C30044901601C30044991
:1031B00001607047D003002000300140003800401B
:1031C000003C004010B50023172216210448FFF7E9
:1031D00017F8BDE81040034A0349FDF79BB800000B
:1031E00078030020000000081922000810B508220A
:1031F00003210748FFF704FF012203210548FEF7DA
:103200001CFEBDE81040044A0449FDF783B80000E5
:10321000B80000200000002000000008731E000815
:1032200008B5012300930223FDF762FC08BD0000EE
:1032300003490A6810440A688242FCD370470000C0
:1032400010000020F0B50D4A4FF0E0240021156871
:103250000B4AB5FBF2F3A26943434FF47A76A069B7
:10326000121A002A01DD114403E0B5FBF6F73A44D7
:103270001144994201D80246F1E7F0BD8C000020CC
:1032800040420F00702809D2054901EB0010016887
:1032900089688089014201D0012070470020704771
:1032A00054390008702807D2054A002902EB0010A3
:1032B0008189006801D00161704741617047000059
:1032C000543900084FF4A060FDF7B6FDFDF7FEFC91
:1032D000FDF794FAFEF74CFBFEF73EFBFCE700001F
:1032E00001480068704700001000002070B5702889
:1032F00031D2194A02EB0014C9B1042917D0282988
:1033000015D0482913D0142911D010290FD01C2909
:103310000DD018290BD0012912D002291BD1BDE8EC
:10332000704042F210724FF47A71FDF78FBDA5899B
:103330000A4629462068BDE870400323FDF700BD1A
:10334000E17BFF2907D00021FFF7D0FFE07BBDE83C
:103350007040FDF7EFB970BD543900082DE9C04148
:1033600030B4DFF8A0C23CEA111418BF3CEA1314D1
:1033700000F0EC8081EA03051CEA111444EAD574DC
:1033800018BF1CEA131500F0C780A4EB05044FF02A
:10339000004545EAC12145EAC32341EA505143EAC9
:1033A000525304F17F74994204F500344FEAC0206F
:1033B0004FEAC22208BF904200F09C804FEA13659A
:1033C0000FF24016765D4FEA134506FB05F7C7F18D
:1033D000807706FB07F74FEAD737A7FB03687642EB
:1033E000C8F58038A7FB06CE38BFA8F1010807FB57
:1033F00008E64FF0000EA6FB028CE6FB03CEDCF1E4
:10340000000CCEF1004E38BFAEF1010EA6FB0C58F9
:103410004FF000074FF00005E6FB0E87A1FB08C642
:10342000A0FB07CE16EB0E0645F10005E1FB076594
:1034300015F1E04E7EBFA4F580345FEA46066D418B
:1034400016F1800745F100054FEA17274FEA066697
:1034500047EA0567A6F1DE46B6F1805F4FEA15251B
:103460001FD9384624F0010C05EBC471BCF1FE6F86
:1034700001EB0C1102D8F0BCBDE8008124425CBF16
:1034800001F5801E9EEAC47F02D4F0BCBDE8008135
:10349000244238D4F0BCA1F1C041BDE8004100F0A5
:1034A00007BA4FEAD22242EA43524FEAD323A7FB9C
:1034B00002864FEAD02040EA415007FB03661EEA2D
:1034C0000E0F4FEAD12105FB026658BFA6EB00564E
:1034D000B6EB00564FEA520E4EEAC37E18EB0E0EC4
:1034E00056EB530EBDD518EB02085E417F1C55F11B
:1034F0000005B6E74FF480154FF000074FF00006C7
:103500004FF00008ADE7F0BC4FF0000001F1C04102
:1035100001F00041BDE8008111EA0C1F0CEA13150F
:1035200000D00CE013EA0C1F00F025804FF00000E3
:10353000F0BC81EA030101F00041BDE80081F0BC6C
:10354000BDE8004181EA030100F0B2B9F0BCBDE87A
:10355000004170B500F05EF9097EFC3E00F007B84E
:1035600081EA03014FF0000001F00041704781EA59
:10357000030100F09DB9F0BCBDE800414FF0000030
:1035800021497047FFFDFBF9F7F5F4F2F0EEEDEBA2
:10359000E9E8E6E4E3E1E0DEDDDBDAD8D7D5D4D351
:1035A000D1D0CFCDCCCBCAC8C7C6C5C4C2C1C0BF9D
:1035B000BEBDBCBBBAB9B8B7B6B5B4B3B2B1B0AFA3
:1035C000AEADACABAAA9A8A8A7A6A5A4A3A3A2A187
:1035D000A09F9F9E9D9C9C9B9A9999989797969542
:1035E00095949393929191908F8F8E8E8D8C8C8BDE
:1035F0008B8A898988888787868585848483838266
:10360000828181800000FF070000F87F4FEA4103BC
:103610004FEA5353A3F58063D3F11E03C8BFD3F120
:10362000210C0CDD4FF0004242EAC12242EA505226
:1036300032FA03FC8CEAE17CACEBE1707047102BB2
:10364000C4BF0020704703F5787CBCF1FF3F04D075
:103650006FF0004282EA2100704770B500F0DAF89E
:103660004992248000207047F2E710F0004248BFE2
:103670004042B0FA80F310FA03F10AD0C3F11D03FF
:1036800003F580634FEA415002EB035202EBD12174
:1036900070474FF000007047B0FA80F310FA03F162
:1036A0000AD0C3F11D0303F580634FEA41504FEA8E
:1036B000035202EBD12170474FF000007047000029
:1036C000DFF848C170B51CEA111E1EBF1CEA1315B5
:1036D0009EEA0C0F95EA0C0F00F06F8081EA03045C
:1036E00023EA4C134EEAD47E21EA4C1141F48011B6
:1036F00043F48013AE44A1FB024CA0FB0365AEF182
:103700007F7E361955EB0C05A1FB034C4CF10003F1
:10371000A0FB021C16EB0C06654153F100030942A5
:1037200018BF46F0010613F4007F0BD14FEA0331B6
:103730004FEA0530340341EA155140EA16506FF064
:1037400003020AE04FEAC3214FEAC520F40241EA2E
:10375000555140EA56506FF0020202EB2E4201EB47
:10376000025585EACE710AD05FEA440C18BF24F0F6
:10377000004450F1000041F1000120EAD47040F211
:10378000FE7C624500D270BDA84214BF4FF0804459
:103790004FF04044002E08BF0024BEF1806FA8BF48
:1037A000A1F1C041BDE8704080F282804FF000007E
:1037B00001F1C04101F0004170479EEA0C0F0CEA94
:1037C000131518BF95EA0C0F06D04FF0000081EAE0
:1037D000030E0EF0004170BD00F01CF88900013EA0
:1037E00000F007B800F009B84FEA430C5FEA5C5CF0
:1037F00008D081EA030100F05BB84FEA410C5FEAB0
:103800005C5CF6D14FF00000014970470000FF07F3
:103810000000F87F0EF1020E2EF0030E5EF8046B2E
:10382000364205D4012A43EB030515F5001F12D8D3
:10383000012841EB010C1CF5001F0CD80ED14FEAFA
:10384000D17C15F5001F0CEB4C0C0CF1020C08BFE1
:103850004CEBD37C04E04FF0080C01E04FEAD37C42
:103860000CEB4C0526FA05F606F00706B6F1040C3B
:1038700006D20EEB860CBDE870404CF0010C6047A0
:10388000DFE80CF0090B02024FF000414FF000009E
:10389000A1F5002170BD19461046012851EB010425
:1038A00018BFD4F5001484BF002001F0004170BDA2
:1038B0000808A0F500114FEA310170470104081013
:1038C000010204084600000064000000C800000077
:1038D000900100002C00000043000000590000008F
:1038E0006F000000850000009B000000B200000097
:1038F000C8000000080000001400000028000000BC
:1039000050000000A0000000400100008002000004
:103910000005000011000000160000001C0000005F
:1039200021000000270000002C00000032000000F1
:10393000380000003D000000430000004800000087
:103940004E00000053000000590000005E0000001F
:103950006400000000080140000000400024014015
:103960000100010000080140000000400024014067
:103970000200020100080140000000400024014054
:103980000400030200080140000000400024014040
:10399000080004030008014000000000002401406A
:1039A0001000000400080140000000000024014055
:1039B00020000005000801400004004000240140F0
:1039C00040000106000801400004004000240140BE
:1039D0008000020700080140002C014000000000A8
:1039E000000101FF00080140002C01400000000020
:1039F000000202FF00080140002C0140000000000E
:103A0000000403FF00080140002C014000000000FA
:103A1000000804FF00080140000000000000000052
:103A2000001000FF0008014000000000000000003E
:103A3000002000FF0008014000000000000000001E
:103A4000004000FF000801400000000000000000EE
:103A5000008000FF000C01400004004000240140F1
:103A600001000308000C0140000400400024014054
:103A700002000409000C01400000000000000000EA
:103A8000040000FF000C01400000000000000000E6
:103A9000080000FF000C01400000000000000000D2
:103AA000100000FF000C01400000000000000000BA
:103AB000200000FF000C0140000800400000000052
:103AC000400001FF000C0140000800400000000021
:103AD000800002FF000C01400008004000000000D0
:103AE000000103FF000C014000080040000000003E
:103AF000000204FF000C0140000000000000000074
:103B0000000400FF000C0140000000000000000065
:103B1000000800FF000C0140000000000000000051
:103B2000001000FF000C0140000000000000000039
:103B3000002000FF000C0140000000000000000019
:103B4000004000FF000C01400000000000000000E9
:103B5000008000FF00100140000000000024014030
:103B60000100000A00100140000000000024014094
:103B70000200000B00100140000000000024014082
:103B80000400000C0010014000000000002401406F
:103B90000800000D0010014000000000002401405A
:103BA0001000000E00100140000000000024014041
:103BB0002000000F00100140003401400000000010
:103BC000400001FF001001400034014000000000EF
:103BD000800002FF0010014000340140000000009E
:103BE000000103FF0010014000340140000000000C
:103BF000000204FF0010014000000000000000006F
:103C0000000400FF00100140000000000000000060
:103C1000000800FF0010014000000000000000004C
:103C2000001000FF00100140000000000000000034
:103C3000002000FF00100140000000000000000014
:103C4000004000FF001001400000000000000000E4
:103C5000008000FF00140140000000000000000090
:103C6000010000FF001401400000000000000000FF
:103C7000020000FF001401400000000000000000EE
:103C8000040000FF001401400000000000000000DC
:103C9000080000FF001401400000000000000000C8
:103CA000100000FF001401400000000000000000B0
:103CB000200000FF00140140000000000000000090
:103CC000400000FF00140140000000000000000060
:103CD000800000FF00140140000000000000000010
:103CE000000100FF0014014000000000000000007F
:103CF000000200FF0014014000000000000000006E
:103D0000000400FF0014014000000000000000005B
:103D1000000800FF00140140000000000000000047
:103D2000001000FF0014014000000000000000002F
:103D3000002000FF0014014000000000000000000F
:103D4000004000FF001401400000000000000000DF
:103D5000008000FF0018014000000000000000008B
:103D6000010000FF001801400000000000000000FA
:103D7000020000FF001801400000000000000000E9
:103D8000040000FF001801400000000000000000D7
:103D9000080000FF001801400000000000000000C3
:103DA000100000FF001801400000000000000000AB
:103DB000200000FF0018014000000000000000008B
:103DC000400000FF0018014000000000000000005B
:103DD000800000FF0018014000000000000000000B
:103DE000000100FF0018014000000000000000007A
:103DF000000200FF00180140000000000000000069
:103E0000000400FF00180140000000000000000056
:103E1000000800FF00180140000000000000000042
:103E2000001000FF0018014000000000000000002A
:103E3000002000FF0018014000000000000000000A
:103E4000004000FF001801400000000000000000DA
:103E5000008000FF001C0140000000000000000086
:103E6000010000FF001C01400000000000000000F5
:103E7000020000FF001C01400000000000000000E4
:103E8000040000FF001C01400000000000000000D2
:103E9000080000FF001C01400000000000000000BE
:103EA000100000FF001C01400000000000000000A6
:103EB000200000FF001C014000000000003C014009
:103EC00040000004001C014000000000003C0140D4
:103ED00080000005001C014000000000003C014083
:103EE00000010006001C014000000000003C0140F1
:103EF00000020007001C014000000000003C0140DF
:103F000000040008001C0140000000000000000048
:103F1000000800FF001C014000000000000000003D
:103F2000001000FF001C0140000000000000000025
:103F3000002000FF001C0140000000000000000005
:103F4000004000FF001C01400000000000000000D5
:103F5000008000FF00200140000000000000000081
:103F6000010000FF002001400000000000000000F0
:103F7000020000FF002001400000000000000000DF
:103F8000040000FF002001400000000000000000CD
:103F9000080000FF002001400000000000000000B9
:103FA000100000FF002001400000000000000000A1
:103FB000200000FF00200140000000000000000081
:103FC000400000FF00200140000000000000000051
:103FD000800000FF00200140000000000000000001
:103FE000000100FF00200140000000000000000070
:103FF000000200FF0020014000000000000000005F
:10400000000400FF0020014000000000000000004C
:10401000000800FF00200140000000000000000038
:10402000001000FF00200140000000000000000020
:10403000002000FF00200140000000000000000000
:10404000004000FF002001400000000000000000D0
:10405000008000FF0000000000000000211D00089B
:10406000471F0008000000000000000000000000E2
:104070000000000000000000000000000000000040
:10408000DF200008A5200008BC4000080000002038
:10409000B40000002801000870410008B4000020AE
:1040A0006C0A00004401000845F1FFFFADF0FFFF7E
:1040B000BDF0FFFF11F1FFFFE9F0FFFF000000007E
:1040C00000000000000000000000000000000000F0
:1040D0000024F4000000000000366E01000004001F
:1040E0000048E80100000800005A620200000C00CD
:1040F000006CDC0200001000007E5603000014007B
:104100000090D0030000180000A24A0400001C0028
:1041100000B4C4040000200000C63E0500002400D6
:1041200000D8B8050000280000EA320600002C0084
:1041300000FCAC0600003000000E27070000340031
:104140000020A1070000380000A24A04000000007F
:104150000000000001020304060708090204060823
:10416000000000000102030401020304060708091D
:04000005080000ED02
:00000001FF
